20140416-16:00:57.723359Z send: [8=FIX.4.2 9=88 35=A 34=1 49=winxton 52=20140416-16:00:57 56=OANDA 95=9 96=sync31415 98=0 108=300 141=Y 10=095 ]
20140416-16:00:57.780133Z recv: [8=FIX.4.2 9=74 35=A 34=1 49=OANDA 52=20140416-16:00:57.770 56=winxton 98=0 108=300 141=Y 10=217 ]
20140416-16:00:57.780254Z logon received
20140416-16:00:57.780489Z recv: [8=FIX.4.2 9=416 35=B 34=2 49=OANDA 52=20140416-16:00:57.770 56=winxton 33=4 58=version: 2.4.13 (fxTrade Practice order server [1,82] 1397664057 216.235.10.210) 58=notice: Market Data Request now supports new MarketDepth and MDUpdateType settings 58=notice: halted pairs are now marked QuoteCondition=B Text=Halted 58=notice: please include the complete server version string in all support requests 148=OANDA FIX Server Information 10=072 ]
20140416-16:00:57.780521Z news received
20140416-16:00:57.780545Z logon successful
20140416-16:00:57.781188Z send: [8=FIX.4.2 9=136 35=D 34=2 49=winxton 52=20140416-16:00:57 56=OANDA 1=3922748 11=test_open_14515 21=1 38=1 40=1 54=1 60=20140416-16:00:57.780 55=EUR/USD 10=089 ]
20140416-16:00:57.802493Z recv: [8=FIX.4.2 9=253 35=8 34=3 49=OANDA 52=20140416-16:00:57.793 56=winxton 1=3922748 6=1.38222 11=test_open_14515 14=1 17=T511860816 20=0 21=1 31=1.38222 32=1 37=8774325 38=1 39=2 40=1 54=1 55=EUR/USD 58=OANDA transaction ID(s): 511860816. 60=20140416-16:00:57 150=2 151=0 10=018 ]
20140416-16:00:57.802920Z Execution Report received
20140416-16:00:57.803222Z send: [8=FIX.4.2 9=103 35=H 34=3 49=winxton 52=20140416-16:00:57 56=OANDA 11=test_open_14515 54=1 55=EUR/USD 790=status_16604 10=002 ]
20140416-16:00:57.821853Z recv: [8=FIX.4.2 9=245 35=8 34=4 49=OANDA 52=20140416-16:00:57.813 56=winxton 1=3922748 6=1.38222 11=test_open_14515 14=1 17=0 20=3 21=1 37=8774325 38=1 39=2 40=1 54=1 55=EUR/USD 58=OANDA transaction ID(s): 511860816. 60=20140416-16:00:57 150=2 151=0 790=status_16604 10=036 ]
20140416-16:00:57.821905Z Execution Report received
20140416-16:00:57.822251Z send: [8=FIX.4.2 9=137 35=D 34=4 49=winxton 52=20140416-16:00:57 56=OANDA 1=3922748 11=test_close_28138 21=1 38=1 40=1 54=2 60=20140416-16:00:57.821 55=EUR/USD 10=195 ]
20140416-16:00:57.843079Z recv: [8=FIX.4.2 9=254 35=8 34=5 49=OANDA 52=20140416-16:00:57.834 56=winxton 1=3922748 6=1.38213 11=test_close_28138 14=1 17=T511860817 20=0 21=1 31=1.38213 32=1 37=8774326 38=1 39=2 40=1 54=2 55=EUR/USD 58=OANDA transaction ID(s): 511860817. 60=20140416-16:00:57 150=2 151=0 10=127 ]
20140416-16:00:57.843130Z Execution Report received
20140416-16:00:57.843442Z send: [8=FIX.4.2 9=114 35=V 34=5 49=winxton 52=20140416-16:00:57 56=OANDA 262=mdreq_52537 263=0 264=1 267=2 269=0 269=1 146=1 55=EUR/USD 10=044 ]
20140416-16:00:57.859297Z recv: [8=FIX.4.2 9=202 35=W 34=6 49=OANDA 52=20140416-16:00:57.850 56=winxton 55=EUR/USD 262=mdreq_52537 268=2 269=0 270=1.38213 271=10000000 272=20140416 273=16:00:56 269=1 270=1.38222 271=10000000 272=20140416 273=16:00:56 10=208 ]
20140416-16:00:57.859439Z mdr successful
20140416-16:00:57.859821Z send: [8=FIX.4.2 9=136 35=D 34=6 49=winxton 52=20140416-16:00:57 56=OANDA 1=3922748 11=test_open_29102 21=1 38=1 40=1 54=1 60=20140416-16:00:57.859 55=EUR/USD 10=098 ]
20140416-16:00:57.884848Z recv: [8=FIX.4.2 9=253 35=8 34=7 49=OANDA 52=20140416-16:00:57.876 56=winxton 1=3922748 6=1.38223 11=test_open_29102 14=1 17=T511860818 20=0 21=1 31=1.38223 32=1 37=8774327 38=1 39=2 40=1 54=1 55=EUR/USD 58=OANDA transaction ID(s): 511860818. 60=20140416-16:00:57 150=2 151=0 10=030 ]
20140416-16:00:57.884900Z Execution Report received
20140416-16:00:57.885189Z send: [8=FIX.4.2 9=103 35=H 34=7 49=winxton 52=20140416-16:00:57 56=OANDA 11=test_open_29102 54=1 55=EUR/USD 790=status_39158 10=013 ]
20140416-16:00:57.902600Z recv: [8=FIX.4.2 9=245 35=8 34=8 49=OANDA 52=20140416-16:00:57.894 56=winxton 1=3922748 6=1.38223 11=test_open_29102 14=1 17=0 20=3 21=1 37=8774327 38=1 39=2 40=1 54=1 55=EUR/USD 58=OANDA transaction ID(s): 511860818. 60=20140416-16:00:57 150=2 151=0 790=status_39158 10=061 ]
20140416-16:00:57.902652Z Execution Report received
20140416-16:00:57.902998Z send: [8=FIX.4.2 9=137 35=D 34=8 49=winxton 52=20140416-16:00:57 56=OANDA 1=3922748 11=test_close_91279 21=1 38=1 40=1 54=2 60=20140416-16:00:57.902 55=EUR/USD 10=205 ]
20140416-16:00:57.924746Z recv: [8=FIX.4.2 9=254 35=8 34=9 49=OANDA 52=20140416-16:00:57.915 56=winxton 1=3922748 6=1.38212 11=test_close_91279 14=1 17=T511860819 20=0 21=1 31=1.38212 32=1 37=8774328 38=1 39=2 40=1 54=2 55=EUR/USD 58=OANDA transaction ID(s): 511860819. 60=20140416-16:00:57 150=2 151=0 10=141 ]
20140416-16:00:57.924798Z Execution Report received
20140416-16:00:57.925110Z send: [8=FIX.4.2 9=114 35=V 34=9 49=winxton 52=20140416-16:00:57 56=OANDA 262=mdreq_41873 263=0 264=1 267=2 269=0 269=1 146=1 55=EUR/USD 10=049 ]
20140416-16:00:57.940709Z recv: [8=FIX.4.2 9=203 35=W 34=10 49=OANDA 52=20140416-16:00:57.932 56=winxton 55=EUR/USD 262=mdreq_41873 268=2 269=0 270=1.38212 271=10000000 272=20140416 273=16:00:57 269=1 270=1.38223 271=10000000 272=20140416 273=16:00:57 10=000 ]
20140416-16:00:57.940749Z mdr successful
20140416-16:00:57.941120Z send: [8=FIX.4.2 9=137 35=D 34=10 49=winxton 52=20140416-16:00:57 56=OANDA 1=3922748 11=test_open_46863 21=1 38=1 40=1 54=1 60=20140416-16:00:57.940 55=EUR/USD 10=146 ]
20140416-16:00:57.963920Z recv: [8=FIX.4.2 9=254 35=8 34=11 49=OANDA 52=20140416-16:00:57.953 56=winxton 1=3922748 6=1.38223 11=test_open_46863 14=1 17=T511860820 20=0 21=1 31=1.38223 32=1 37=8774329 38=1 39=2 40=1 54=1 55=EUR/USD 58=OANDA transaction ID(s): 511860820. 60=20140416-16:00:57 150=2 151=0 10=071 ]
20140416-16:00:57.963971Z Execution Report received
20140416-16:00:57.964261Z send: [8=FIX.4.2 9=104 35=H 34=11 49=winxton 52=20140416-16:00:57 56=OANDA 11=test_open_46863 54=1 55=EUR/USD 790=status_12124 10=054 ]
20140416-16:00:57.982797Z recv: [8=FIX.4.2 9=246 35=8 34=12 49=OANDA 52=20140416-16:00:57.973 56=winxton 1=3922748 6=1.38223 11=test_open_46863 14=1 17=0 20=3 21=1 37=8774329 38=1 39=2 40=1 54=1 55=EUR/USD 58=OANDA transaction ID(s): 511860820. 60=20140416-16:00:57 150=2 151=0 790=status_12124 10=095 ]
20140416-16:00:57.982849Z Execution Report received
20140416-16:00:57.983200Z send: [8=FIX.4.2 9=138 35=D 34=12 49=winxton 52=20140416-16:00:57 56=OANDA 1=3922748 11=test_close_38169 21=1 38=1 40=1 54=2 60=20140416-16:00:57.982 55=EUR/USD 10=000 ]
20140416-16:00:58.006933Z recv: [8=FIX.4.2 9=255 35=8 34=13 49=OANDA 52=20140416-16:00:57.996 56=winxton 1=3922748 6=1.38212 11=test_close_38169 14=1 17=T511860822 20=0 21=1 31=1.38212 32=1 37=8774330 38=1 39=2 40=1 54=2 55=EUR/USD 58=OANDA transaction ID(s): 511860822. 60=20140416-16:00:57 150=2 151=0 10=174 ]
20140416-16:00:58.006987Z Execution Report received
20140416-16:00:58.007304Z send: [8=FIX.4.2 9=115 35=V 34=13 49=winxton 52=20140416-16:00:58 56=OANDA 262=mdreq_56122 263=0 264=1 267=2 269=0 269=1 146=1 55=EUR/USD 10=087 ]
20140416-16:00:58.024969Z recv: [8=FIX.4.2 9=203 35=W 34=14 49=OANDA 52=20140416-16:00:58.014 56=winxton 55=EUR/USD 262=mdreq_56122 268=2 269=0 270=1.38212 271=10000000 272=20140416 273=16:00:57 269=1 270=1.38223 271=10000000 272=20140416 273=16:00:57 10=245 ]
20140416-16:00:58.025001Z mdr successful
20140416-16:00:58.025180Z send: [8=FIX.4.2 9=137 35=D 34=14 49=winxton 52=20140416-16:00:58 56=OANDA 1=3922748 11=test_open_92681 21=1 38=1 40=1 54=1 60=20140416-16:00:58.025 55=EUR/USD 10=145 ]
20140416-16:00:58.058708Z recv: [8=FIX.4.2 9=254 35=8 34=15 49=OANDA 52=20140416-16:00:58.044 56=winxton 1=3922748 6=1.38223 11=test_open_92681 14=1 17=T511860823 20=0 21=1 31=1.38223 32=1 37=8774331 38=1 39=2 40=1 54=1 55=EUR/USD 58=OANDA transaction ID(s): 511860823. 60=20140416-16:00:58 150=2 151=0 10=066 ]
20140416-16:00:58.058751Z Execution Report received
20140416-16:00:58.058915Z send: [8=FIX.4.2 9=104 35=H 34=15 49=winxton 52=20140416-16:00:58 56=OANDA 11=test_open_92681 54=1 55=EUR/USD 790=status_31648 10=070 ]
20140416-16:00:58.090146Z recv: [8=FIX.4.2 9=246 35=8 34=16 49=OANDA 52=20140416-16:00:58.077 56=winxton 1=3922748 6=1.38223 11=test_open_92681 14=1 17=0 20=3 21=1 37=8774331 38=1 39=2 40=1 54=1 55=EUR/USD 58=OANDA transaction ID(s): 511860823. 60=20140416-16:00:58 150=2 151=0 790=status_31648 10=103 ]
20140416-16:00:58.090230Z Execution Report received
20140416-16:00:58.090647Z send: [8=FIX.4.2 9=138 35=D 34=16 49=winxton 52=20140416-16:00:58 56=OANDA 1=3922748 11=test_close_10974 21=1 38=1 40=1 54=2 60=20140416-16:00:58.090 55=EUR/USD 10=246 ]
20140416-16:00:58.120313Z recv: [8=FIX.4.2 9=255 35=8 34=17 49=OANDA 52=20140416-16:00:58.108 56=winxton 1=3922748 6=1.38212 11=test_close_10974 14=1 17=T511860825 20=0 21=1 31=1.38212 32=1 37=8774332 38=1 39=2 40=1 54=2 55=EUR/USD 58=OANDA transaction ID(s): 511860825. 60=20140416-16:00:58 150=2 151=0 10=167 ]
20140416-16:00:58.120385Z Execution Report received
20140416-16:00:58.120777Z send: [8=FIX.4.2 9=115 35=V 34=17 49=winxton 52=20140416-16:00:58 56=OANDA 262=mdreq_97575 263=0 264=1 267=2 269=0 269=1 146=1 55=EUR/USD 10=108 ]
20140416-16:00:58.141137Z recv: [8=FIX.4.2 9=203 35=W 34=18 49=OANDA 52=20140416-16:00:58.129 56=winxton 55=EUR/USD 262=mdreq_97575 268=2 269=0 270=1.38212 271=10000000 272=20140416 273=16:00:57 269=1 270=1.38223 271=10000000 272=20140416 273=16:00:57 10=017 ]
20140416-16:00:58.141179Z mdr successful
20140416-16:00:58.141552Z send: [8=FIX.4.2 9=137 35=D 34=18 49=winxton 52=20140416-16:00:58 56=OANDA 1=3922748 11=test_open_14919 21=1 38=1 40=1 54=1 60=20140416-16:00:58.141 55=EUR/USD 10=146 ]
20140416-16:00:58.166098Z recv: [8=FIX.4.2 9=254 35=8 34=19 49=OANDA 52=20140416-16:00:58.157 56=winxton 1=3922748 6=1.38223 11=test_open_14919 14=1 17=T511860826 20=0 21=1 31=1.38223 32=1 37=8774333 38=1 39=2 40=1 54=1 55=EUR/USD 58=OANDA transaction ID(s): 511860826. 60=20140416-16:00:58 150=2 151=0 10=081 ]
20140416-16:00:58.166162Z Execution Report received
20140416-16:00:58.166460Z send: [8=FIX.4.2 9=104 35=H 34=19 49=winxton 52=20140416-16:00:58 56=OANDA 11=test_open_14919 54=1 55=EUR/USD 790=status_23748 10=074 ]
20140416-16:00:58.188922Z recv: [8=FIX.4.2 9=246 35=8 34=20 49=OANDA 52=20140416-16:00:58.176 56=winxton 1=3922748 6=1.38223 11=test_open_14919 14=1 17=0 20=3 21=1 37=8774333 38=1 39=2 40=1 54=1 55=EUR/USD 58=OANDA transaction ID(s): 511860826. 60=20140416-16:00:58 150=2 151=0 790=status_23748 10=103 ]
20140416-16:00:58.188976Z Execution Report received
20140416-16:00:58.189329Z send: [8=FIX.4.2 9=138 35=D 34=20 49=winxton 52=20140416-16:00:58 56=OANDA 1=3922748 11=test_close_59326 21=1 38=1 40=1 54=2 60=20140416-16:00:58.189 55=EUR/USD 10=254 ]
20140416-16:00:58.214584Z recv: [8=FIX.4.2 9=255 35=8 34=21 49=OANDA 52=20140416-16:00:58.203 56=winxton 1=3922748 6=1.38212 11=test_close_59326 14=1 17=T511860828 20=0 21=1 31=1.38212 32=1 37=8774334 38=1 39=2 40=1 54=2 55=EUR/USD 58=OANDA transaction ID(s): 511860828. 60=20140416-16:00:58 150=2 151=0 10=170 ]
20140416-16:00:58.214636Z Execution Report received
20140416-16:00:58.214950Z send: [8=FIX.4.2 9=115 35=V 34=21 49=winxton 52=20140416-16:00:58 56=OANDA 262=mdreq_21824 263=0 264=1 267=2 269=0 269=1 146=1 55=EUR/USD 10=087 ]
20140416-16:00:58.232950Z recv: [8=FIX.4.2 9=203 35=W 34=22 49=OANDA 52=20140416-16:00:58.224 56=winxton 55=EUR/USD 262=mdreq_21824 268=2 269=0 270=1.38212 271=10000000 272=20140416 273=16:00:57 269=1 270=1.38223 271=10000000 272=20140416 273=16:00:57 10=248 ]
20140416-16:00:58.232991Z mdr successful
20140416-16:00:58.233364Z send: [8=FIX.4.2 9=137 35=D 34=22 49=winxton 52=20140416-16:00:58 56=OANDA 1=3922748 11=test_open_87127 21=1 38=1 40=1 54=1 60=20140416-16:00:58.233 55=EUR/USD 10=144 ]
20140416-16:00:58.254991Z recv: [8=FIX.4.2 9=254 35=8 34=23 49=OANDA 52=20140416-16:00:58.246 56=winxton 1=3922748 6=1.38223 11=test_open_87127 14=1 17=T511860829 20=0 21=1 31=1.38223 32=1 37=8774335 38=1 39=2 40=1 54=1 55=EUR/USD 58=OANDA transaction ID(s): 511860829. 60=20140416-16:00:58 150=2 151=0 10=084 ]
20140416-16:00:58.255052Z Execution Report received
20140416-16:00:58.255356Z send: [8=FIX.4.2 9=104 35=H 34=23 49=winxton 52=20140416-16:00:58 56=OANDA 11=test_open_87127 54=1 55=EUR/USD 790=status_33631 10=062 ]
20140416-16:00:58.274108Z recv: [8=FIX.4.2 9=246 35=8 34=24 49=OANDA 52=20140416-16:00:58.265 56=winxton 1=3922748 6=1.38223 11=test_open_87127 14=1 17=0 20=3 21=1 37=8774335 38=1 39=2 40=1 54=1 55=EUR/USD 58=OANDA transaction ID(s): 511860829. 60=20140416-16:00:58 150=2 151=0 790=status_33631 10=104 ]
20140416-16:00:58.274168Z Execution Report received
20140416-16:00:58.274520Z send: [8=FIX.4.2 9=138 35=D 34=24 49=winxton 52=20140416-16:00:58 56=OANDA 1=3922748 11=test_close_67197 21=1 38=1 40=1 54=2 60=20140416-16:00:58.274 55=EUR/USD 10=002 ]
20140416-16:00:58.294481Z recv: [8=FIX.4.2 9=255 35=8 34=25 49=OANDA 52=20140416-16:00:58.286 56=winxton 1=3922748 6=1.38212 11=test_close_67197 14=1 17=T511860830 20=0 21=1 31=1.38212 32=1 37=8774336 38=1 39=2 40=1 54=2 55=EUR/USD 58=OANDA transaction ID(s): 511860830. 60=20140416-16:00:58 150=2 151=0 10=178 ]
20140416-16:00:58.294533Z Execution Report received
20140416-16:00:58.294847Z send: [8=FIX.4.2 9=115 35=V 34=25 49=winxton 52=20140416-16:00:58 56=OANDA 262=mdreq_25186 263=0 264=1 267=2 269=0 269=1 146=1 55=EUR/USD 10=096 ]
20140416-16:00:58.310443Z recv: [8=FIX.4.2 9=203 35=W 34=26 49=OANDA 52=20140416-16:00:58.301 56=winxton 55=EUR/USD 262=mdreq_25186 268=2 269=0 270=1.38212 271=10000000 272=20140416 273=16:00:57 269=1 270=1.38223 271=10000000 272=20140416 273=16:00:57 10=253 ]
20140416-16:00:58.310485Z mdr successful
20140416-16:00:58.310854Z send: [8=FIX.4.2 9=137 35=D 34=26 49=winxton 52=20140416-16:00:58 56=OANDA 1=3922748 11=test_open_29372 21=1 38=1 40=1 54=1 60=20140416-16:00:58.310 55=EUR/USD 10=142 ]
20140416-16:00:58.330963Z recv: [8=FIX.4.2 9=254 35=8 34=27 49=OANDA 52=20140416-16:00:58.322 56=winxton 1=3922748 6=1.38223 11=test_open_29372 14=1 17=T511860831 20=0 21=1 31=1.38223 32=1 37=8774337 38=1 39=2 40=1 54=1 55=EUR/USD 58=OANDA transaction ID(s): 511860831. 60=20140416-16:00:58 150=2 151=0 10=069 ]
20140416-16:00:58.331015Z Execution Report received
20140416-16:00:58.331304Z send: [8=FIX.4.2 9=104 35=H 34=27 49=winxton 52=20140416-16:00:58 56=OANDA 11=test_open_29372 54=1 55=EUR/USD 790=status_94439 10=077 ]
20140416-16:00:58.348689Z recv: [8=FIX.4.2 9=246 35=8 34=28 49=OANDA 52=20140416-16:00:58.340 56=winxton 1=3922748 6=1.38223 11=test_open_29372 14=1 17=0 20=3 21=1 37=8774337 38=1 39=2 40=1 54=1 55=EUR/USD 58=OANDA transaction ID(s): 511860831. 60=20140416-16:00:58 150=2 151=0 790=status_94439 10=108 ]
20140416-16:00:58.348741Z Execution Report received
20140416-16:00:58.349092Z send: [8=FIX.4.2 9=138 35=D 34=28 49=winxton 52=20140416-16:00:58 56=OANDA 1=3922748 11=test_close_75007 21=1 38=1 40=1 54=2 60=20140416-16:00:58.348 55=EUR/USD 10=253 ]
20140416-16:00:58.369359Z recv: [8=FIX.4.2 9=255 35=8 34=29 49=OANDA 52=20140416-16:00:58.360 56=winxton 1=3922748 6=1.38212 11=test_close_75007 14=1 17=T511860832 20=0 21=1 31=1.38212 32=1 37=8774338 38=1 39=2 40=1 54=2 55=EUR/USD 58=OANDA transaction ID(s): 511860832. 60=20140416-16:00:58 150=2 151=0 10=170 ]
20140416-16:00:58.369410Z Execution Report received
20140416-16:00:58.369723Z send: [8=FIX.4.2 9=115 35=V 34=29 49=winxton 52=20140416-16:00:58 56=OANDA 262=mdreq_20483 263=0 264=1 267=2 269=0 269=1 146=1 55=EUR/USD 10=095 ]
20140416-16:00:58.385174Z recv: [8=FIX.4.2 9=203 35=W 34=30 49=OANDA 52=20140416-16:00:58.376 56=winxton 55=EUR/USD 262=mdreq_20483 268=2 269=0 270=1.38212 271=10000000 272=20140416 273=16:00:57 269=1 270=1.38223 271=10000000 272=20140416 273=16:00:57 10=255 ]
20140416-16:00:58.385215Z mdr successful
20140416-16:00:58.385587Z send: [8=FIX.4.2 9=137 35=D 34=30 49=winxton 52=20140416-16:00:58 56=OANDA 1=3922748 11=test_open_28727 21=1 38=1 40=1 54=1 60=20140416-16:00:58.385 55=EUR/USD 10=152 ]
20140416-16:00:58.407238Z recv: [8=FIX.4.2 9=254 35=8 34=31 49=OANDA 52=20140416-16:00:58.398 56=winxton 1=3922748 6=1.38223 11=test_open_28727 14=1 17=T511860833 20=0 21=1 31=1.38223 32=1 37=8774339 38=1 39=2 40=1 54=1 55=EUR/USD 58=OANDA transaction ID(s): 511860833. 60=20140416-16:00:58 150=2 151=0 10=086 ]
20140416-16:00:58.407290Z Execution Report received
20140416-16:00:58.407581Z send: [8=FIX.4.2 9=104 35=H 34=31 49=winxton 52=20140416-16:00:58 56=OANDA 11=test_open_28727 54=1 55=EUR/USD 790=status_56973 10=076 ]
20140416-16:00:58.426071Z recv: [8=FIX.4.2 9=246 35=8 34=32 49=OANDA 52=20140416-16:00:58.417 56=winxton 1=3922748 6=1.38223 11=test_open_28727 14=1 17=0 20=3 21=1 37=8774339 38=1 39=2 40=1 54=1 55=EUR/USD 58=OANDA transaction ID(s): 511860833. 60=20140416-16:00:58 150=2 151=0 790=status_56973 10=116 ]
20140416-16:00:58.426136Z Execution Report received
20140416-16:00:58.426490Z send: [8=FIX.4.2 9=138 35=D 34=32 49=winxton 52=20140416-16:00:58 56=OANDA 1=3922748 11=test_close_40589 21=1 38=1 40=1 54=2 60=20140416-16:00:58.426 55=EUR/USD 10=252 ]
20140416-16:00:58.447761Z recv: [8=FIX.4.2 9=255 35=8 34=33 49=OANDA 52=20140416-16:00:58.439 56=winxton 1=3922748 6=1.38212 11=test_close_40589 14=1 17=T511860834 20=0 21=1 31=1.38212 32=1 37=8774340 38=1 39=2 40=1 54=2 55=EUR/USD 58=OANDA transaction ID(s): 511860834. 60=20140416-16:00:58 150=2 151=0 10=176 ]
20140416-16:00:58.447813Z Execution Report received
20140416-16:00:58.448126Z send: [8=FIX.4.2 9=115 35=V 34=33 49=winxton 52=20140416-16:00:58 56=OANDA 262=mdreq_48710 263=0 264=1 267=2 269=0 269=1 146=1 55=EUR/USD 10=093 ]
20140416-16:00:58.464967Z recv: [8=FIX.4.2 9=203 35=W 34=34 49=OANDA 52=20140416-16:00:58.455 56=winxton 55=EUR/USD 262=mdreq_48710 268=2 269=0 270=1.38212 271=10000000 272=20140416 273=16:00:57 269=1 270=1.38223 271=10000000 272=20140416 273=16:00:57 10=004 ]
20140416-16:00:58.465008Z mdr successful
20140416-16:00:58.465378Z send: [8=FIX.4.2 9=137 35=D 34=34 49=winxton 52=20140416-16:00:58 56=OANDA 1=3922748 11=test_open_30537 21=1 38=1 40=1 54=1 60=20140416-16:00:58.465 55=EUR/USD 10=147 ]
20140416-16:00:58.488832Z recv: [8=FIX.4.2 9=254 35=8 34=35 49=OANDA 52=20140416-16:00:58.478 56=winxton 1=3922748 6=1.38223 11=test_open_30537 14=1 17=T511860835 20=0 21=1 31=1.38223 32=1 37=8774341 38=1 39=2 40=1 54=1 55=EUR/USD 58=OANDA transaction ID(s): 511860835. 60=20140416-16:00:58 150=2 151=0 10=078 ]
20140416-16:00:58.488887Z Execution Report received
20140416-16:00:58.489184Z send: [8=FIX.4.2 9=104 35=H 34=35 49=winxton 52=20140416-16:00:58 56=OANDA 11=test_open_30537 54=1 55=EUR/USD 790=status_43293 10=063 ]
20140416-16:00:58.514522Z recv: [8=FIX.4.2 9=246 35=8 34=36 49=OANDA 52=20140416-16:00:58.503 56=winxton 1=3922748 6=1.38223 11=test_open_30537 14=1 17=0 20=3 21=1 37=8774341 38=1 39=2 40=1 54=1 55=EUR/USD 58=OANDA transaction ID(s): 511860835. 60=20140416-16:00:58 150=2 151=0 790=status_43293 10=094 ]
20140416-16:00:58.514583Z Execution Report received
20140416-16:00:58.514943Z send: [8=FIX.4.2 9=138 35=D 34=36 49=winxton 52=20140416-16:00:58 56=OANDA 1=3922748 11=test_close_31760 21=1 38=1 40=1 54=2 60=20140416-16:00:58.514 55=EUR/USD 10=245 ]
20140416-16:00:58.540652Z recv: [8=FIX.4.2 9=255 35=8 34=37 49=OANDA 52=20140416-16:00:58.532 56=winxton 1=3922748 6=1.38212 11=test_close_31760 14=1 17=T511860836 20=0 21=1 31=1.38212 32=1 37=8774342 38=1 39=2 40=1 54=2 55=EUR/USD 58=OANDA transaction ID(s): 511860836. 60=20140416-16:00:58 150=2 151=0 10=171 ]
20140416-16:00:58.540703Z Execution Report received
20140416-16:00:58.541019Z send: [8=FIX.4.2 9=115 35=V 34=37 49=winxton 52=20140416-16:00:58 56=OANDA 262=mdreq_95640 263=0 264=1 267=2 269=0 269=1 146=1 55=EUR/USD 10=101 ]
20140416-16:00:58.556911Z recv: [8=FIX.4.2 9=203 35=W 34=38 49=OANDA 52=20140416-16:00:58.548 56=winxton 55=EUR/USD 262=mdreq_95640 268=2 269=0 270=1.38212 271=10000000 272=20140416 273=16:00:57 269=1 270=1.38223 271=10000000 272=20140416 273=16:00:57 10=015 ]
20140416-16:00:58.556952Z mdr successful
20140416-16:00:58.557324Z send: [8=FIX.4.2 9=137 35=D 34=38 49=winxton 52=20140416-16:00:58 56=OANDA 1=3922748 11=test_open_63756 21=1 38=1 40=1 54=1 60=20140416-16:00:58.557 55=EUR/USD 10=162 ]
20140416-16:00:58.577394Z recv: [8=FIX.4.2 9=254 35=8 34=39 49=OANDA 52=20140416-16:00:58.568 56=winxton 1=3922748 6=1.38223 11=test_open_63756 14=1 17=T511860837 20=0 21=1 31=1.38223 32=1 37=8774343 38=1 39=2 40=1 54=1 55=EUR/USD 58=OANDA transaction ID(s): 511860837. 60=20140416-16:00:58 150=2 151=0 10=097 ]
20140416-16:00:58.577446Z Execution Report received
20140416-16:00:58.577736Z send: [8=FIX.4.2 9=104 35=H 34=39 49=winxton 52=20140416-16:00:58 56=OANDA 11=test_open_63756 54=1 55=EUR/USD 790=status_45094 10=077 ]
20140416-16:00:58.597655Z recv: [8=FIX.4.2 9=246 35=8 34=40 49=OANDA 52=20140416-16:00:58.586 56=winxton 1=3922748 6=1.38223 11=test_open_63756 14=1 17=0 20=3 21=1 37=8774343 38=1 39=2 40=1 54=1 55=EUR/USD 58=OANDA transaction ID(s): 511860837. 60=20140416-16:00:58 150=2 151=0 790=status_45094 10=114 ]
20140416-16:00:58.597707Z Execution Report received
20140416-16:00:58.598057Z send: [8=FIX.4.2 9=138 35=D 34=40 49=winxton 52=20140416-16:00:58 56=OANDA 1=3922748 11=test_close_13236 21=1 38=1 40=1 54=2 60=20140416-16:00:58.597 55=EUR/USD 10=249 ]
20140416-16:00:58.617965Z recv: [8=FIX.4.2 9=255 35=8 34=41 49=OANDA 52=20140416-16:00:58.609 56=winxton 1=3922748 6=1.38212 11=test_close_13236 14=1 17=T511860838 20=0 21=1 31=1.38212 32=1 37=8774344 38=1 39=2 40=1 54=2 55=EUR/USD 58=OANDA transaction ID(s): 511860838. 60=20140416-16:00:58 150=2 151=0 10=175 ]
20140416-16:00:58.618020Z Execution Report received
20140416-16:00:58.618339Z send: [8=FIX.4.2 9=115 35=V 34=41 49=winxton 52=20140416-16:00:58 56=OANDA 262=mdreq_56156 263=0 264=1 267=2 269=0 269=1 146=1 55=EUR/USD 10=095 ]
20140416-16:00:58.633545Z recv: [8=FIX.4.2 9=203 35=W 34=42 49=OANDA 52=20140416-16:00:58.625 56=winxton 55=EUR/USD 262=mdreq_56156 268=2 269=0 270=1.38212 271=10000000 272=20140416 273=16:00:57 269=1 270=1.38223 271=10000000 272=20140416 273=16:00:57 10=005 ]
20140416-16:00:58.633586Z mdr successful
20140416-16:00:58.633958Z send: [8=FIX.4.2 9=137 35=D 34=42 49=winxton 52=20140416-16:00:58 56=OANDA 1=3922748 11=test_open_56338 21=1 38=1 40=1 54=1 60=20140416-16:00:58.633 55=EUR/USD 10=150 ]
20140416-16:00:58.654461Z recv: [8=FIX.4.2 9=254 35=8 34=43 49=OANDA 52=20140416-16:00:58.645 56=winxton 1=3922748 6=1.38223 11=test_open_56338 14=1 17=T511860839 20=0 21=1 31=1.38223 32=1 37=8774345 38=1 39=2 40=1 54=1 55=EUR/USD 58=OANDA transaction ID(s): 511860839. 60=20140416-16:00:58 150=2 151=0 10=092 ]
20140416-16:00:58.654512Z Execution Report received
20140416-16:00:58.654802Z send: [8=FIX.4.2 9=104 35=H 34=43 49=winxton 52=20140416-16:00:58 56=OANDA 11=test_open_56338 54=1 55=EUR/USD 790=status_37060 10=064 ]
20140416-16:00:58.673585Z recv: [8=FIX.4.2 9=246 35=8 34=44 49=OANDA 52=20140416-16:00:58.665 56=winxton 1=3922748 6=1.38223 11=test_open_56338 14=1 17=0 20=3 21=1 37=8774345 38=1 39=2 40=1 54=1 55=EUR/USD 58=OANDA transaction ID(s): 511860839. 60=20140416-16:00:58 150=2 151=0 790=status_37060 10=112 ]
20140416-16:00:58.673664Z Execution Report received
20140416-16:00:58.674208Z send: [8=FIX.4.2 9=138 35=D 34=44 49=winxton 52=20140416-16:00:58 56=OANDA 1=3922748 11=test_close_20765 21=1 38=1 40=1 54=2 60=20140416-16:00:58.673 55=EUR/USD 10=253 ]
20140416-16:00:58.696455Z recv: [8=FIX.4.2 9=255 35=8 34=45 49=OANDA 52=20140416-16:00:58.687 56=winxton 1=3922748 6=1.38212 11=test_close_20765 14=1 17=T511860840 20=0 21=1 31=1.38212 32=1 37=8774346 38=1 39=2 40=1 54=2 55=EUR/USD 58=OANDA transaction ID(s): 511860840. 60=20140416-16:00:58 150=2 151=0 10=178 ]
20140416-16:00:58.696542Z Execution Report received
20140416-16:00:58.697144Z send: [8=FIX.4.2 9=115 35=V 34=45 49=winxton 52=20140416-16:00:58 56=OANDA 262=mdreq_52277 263=0 264=1 267=2 269=0 269=1 146=1 55=EUR/USD 10=099 ]
20140416-16:00:58.713595Z recv: [8=FIX.4.2 9=203 35=W 34=46 49=OANDA 52=20140416-16:00:58.704 56=winxton 55=EUR/USD 262=mdreq_52277 268=2 269=0 270=1.38212 271=10000000 272=20140416 273=16:00:57 269=1 270=1.38223 271=10000000 272=20140416 273=16:00:57 10=007 ]
20140416-16:00:58.713661Z mdr successful
20140416-16:00:58.714332Z send: [8=FIX.4.2 9=137 35=D 34=46 49=winxton 52=20140416-16:00:58 56=OANDA 1=3922748 11=test_open_99655 21=1 38=1 40=1 54=1 60=20140416-16:00:58.713 55=EUR/USD 10=162 ]
20140416-16:00:58.734777Z recv: [8=FIX.4.2 9=254 35=8 34=47 49=OANDA 52=20140416-16:00:58.725 56=winxton 1=3922748 6=1.38223 11=test_open_99655 14=1 17=T511860841 20=0 21=1 31=1.38223 32=1 37=8774347 38=1 39=2 40=1 54=1 55=EUR/USD 58=OANDA transaction ID(s): 511860841. 60=20140416-16:00:58 150=2 151=0 10=092 ]
20140416-16:00:58.734837Z Execution Report received
20140416-16:00:58.735153Z send: [8=FIX.4.2 9=104 35=H 34=47 49=winxton 52=20140416-16:00:58 56=OANDA 11=test_open_99655 54=1 55=EUR/USD 790=status_29286 10=088 ]
20140416-16:00:58.753773Z recv: [8=FIX.4.2 9=246 35=8 34=48 49=OANDA 52=20140416-16:00:58.744 56=winxton 1=3922748 6=1.38223 11=test_open_99655 14=1 17=0 20=3 21=1 37=8774347 38=1 39=2 40=1 54=1 55=EUR/USD 58=OANDA transaction ID(s): 511860841. 60=20140416-16:00:58 150=2 151=0 790=status_29286 10=129 ]
20140416-16:00:58.753826Z Execution Report received
20140416-16:00:58.754179Z send: [8=FIX.4.2 9=138 35=D 34=48 49=winxton 52=20140416-16:00:58 56=OANDA 1=3922748 11=test_close_76156 21=1 38=1 40=1 54=2 60=20140416-16:00:58.753 55=EUR/USD 10=005 ]
20140416-16:00:58.776133Z recv: [8=FIX.4.2 9=255 35=8 34=49 49=OANDA 52=20140416-16:00:58.767 56=winxton 1=3922748 6=1.38212 11=test_close_76156 14=1 17=T511860843 20=0 21=1 31=1.38212 32=1 37=8774348 38=1 39=2 40=1 54=2 55=EUR/USD 58=OANDA transaction ID(s): 511860843. 60=20140416-16:00:58 150=2 151=0 10=194 ]
20140416-16:00:58.776193Z Execution Report received
20140416-16:00:58.776546Z send: [8=FIX.4.2 9=115 35=V 34=49 49=winxton 52=20140416-16:00:58 56=OANDA 262=mdreq_78044 263=0 264=1 267=2 269=0 269=1 146=1 55=EUR/USD 10=103 ]
20140416-16:00:58.792695Z recv: [8=FIX.4.2 9=203 35=W 34=50 49=OANDA 52=20140416-16:00:58.784 56=winxton 55=EUR/USD 262=mdreq_78044 268=2 269=0 270=1.38212 271=10000000 272=20140416 273=16:00:57 269=1 270=1.38223 271=10000000 272=20140416 273=16:00:57 10=010 ]
20140416-16:00:58.792738Z mdr successful
20140416-16:00:58.793111Z send: [8=FIX.4.2 9=137 35=D 34=50 49=winxton 52=20140416-16:00:58 56=OANDA 1=3922748 11=test_open_29605 21=1 38=1 40=1 54=1 60=20140416-16:00:58.792 55=EUR/USD 10=152 ]
20140416-16:00:58.815644Z recv: [8=FIX.4.2 9=254 35=8 34=51 49=OANDA 52=20140416-16:00:58.806 56=winxton 1=3922748 6=1.38223 11=test_open_29605 14=1 17=T511860845 20=0 21=1 31=1.38223 32=1 37=8774349 38=1 39=2 40=1 54=1 55=EUR/USD 58=OANDA transaction ID(s): 511860845. 60=20140416-16:00:58 150=2 151=0 10=085 ]
20140416-16:00:58.815699Z Execution Report received
20140416-16:00:58.815992Z send: [8=FIX.4.2 9=104 35=H 34=51 49=winxton 52=20140416-16:00:58 56=OANDA 11=test_open_29605 54=1 55=EUR/USD 790=status_70824 10=065 ]
20140416-16:00:58.833775Z recv: [8=FIX.4.2 9=246 35=8 34=52 49=OANDA 52=20140416-16:00:58.824 56=winxton 1=3922748 6=1.38223 11=test_open_29605 14=1 17=0 20=3 21=1 37=8774349 38=1 39=2 40=1 54=1 55=EUR/USD 58=OANDA transaction ID(s): 511860845. 60=20140416-16:00:58 150=2 151=0 790=status_70824 10=111 ]
20140416-16:00:58.833824Z Execution Report received
20140416-16:00:58.834191Z send: [8=FIX.4.2 9=138 35=D 34=52 49=winxton 52=20140416-16:00:58 56=OANDA 1=3922748 11=test_close_72000 21=1 38=1 40=1 54=2 60=20140416-16:00:58.833 55=EUR/USD 10=239 ]
20140416-16:00:58.855438Z recv: [8=FIX.4.2 9=255 35=8 34=53 49=OANDA 52=20140416-16:00:58.846 56=winxton 1=3922748 6=1.38212 11=test_close_72000 14=1 17=T511860846 20=0 21=1 31=1.38212 32=1 37=8774350 38=1 39=2 40=1 54=2 55=EUR/USD 58=OANDA transaction ID(s): 511860846. 60=20140416-16:00:58 150=2 151=0 10=170 ]
20140416-16:00:58.855483Z Execution Report received
20140416-16:00:58.855796Z send: [8=FIX.4.2 9=115 35=V 34=53 49=winxton 52=20140416-16:00:58 56=OANDA 262=mdreq_19488 263=0 264=1 267=2 269=0 269=1 146=1 55=EUR/USD 10=105 ]
20140416-16:00:58.871837Z recv: [8=FIX.4.2 9=203 35=W 34=54 49=OANDA 52=20140416-16:00:58.862 56=winxton 55=EUR/USD 262=mdreq_19488 268=2 269=0 270=1.38212 271=10000000 272=20140416 273=16:00:57 269=1 270=1.38223 271=10000000 272=20140416 273=16:00:57 10=018 ]
20140416-16:00:58.871869Z mdr successful
20140416-16:00:58.872249Z send: [8=FIX.4.2 9=137 35=D 34=54 49=winxton 52=20140416-16:00:58 56=OANDA 1=3922748 11=test_open_26655 21=1 38=1 40=1 54=1 60=20140416-16:00:58.871 55=EUR/USD 10=156 ]
20140416-16:00:58.893008Z recv: [8=FIX.4.2 9=254 35=8 34=55 49=OANDA 52=20140416-16:00:58.883 56=winxton 1=3922748 6=1.38223 11=test_open_26655 14=1 17=T511860848 20=0 21=1 31=1.38223 32=1 37=8774351 38=1 39=2 40=1 54=1 55=EUR/USD 58=OANDA transaction ID(s): 511860848. 60=20140416-16:00:58 150=2 151=0 10=095 ]
20140416-16:00:58.893058Z Execution Report received
20140416-16:00:58.893356Z send: [8=FIX.4.2 9=104 35=H 34=55 49=winxton 52=20140416-16:00:58 56=OANDA 11=test_open_26655 54=1 55=EUR/USD 790=status_72991 10=078 ]
20140416-16:00:58.911366Z recv: [8=FIX.4.2 9=246 35=8 34=56 49=OANDA 52=20140416-16:00:58.903 56=winxton 1=3922748 6=1.38223 11=test_open_26655 14=1 17=0 20=3 21=1 37=8774351 38=1 39=2 40=1 54=1 55=EUR/USD 58=OANDA transaction ID(s): 511860848. 60=20140416-16:00:58 150=2 151=0 790=status_72991 10=118 ]
20140416-16:00:58.911406Z Execution Report received
20140416-16:00:58.911749Z send: [8=FIX.4.2 9=138 35=D 34=56 49=winxton 52=20140416-16:00:58 56=OANDA 1=3922748 11=test_close_79000 21=1 38=1 40=1 54=2 60=20140416-16:00:58.911 55=EUR/USD 10=247 ]
20140416-16:00:58.933816Z recv: [8=FIX.4.2 9=255 35=8 34=57 49=OANDA 52=20140416-16:00:58.925 56=winxton 1=3922748 6=1.38212 11=test_close_79000 14=1 17=T511860849 20=0 21=1 31=1.38212 32=1 37=8774352 38=1 39=2 40=1 54=2 55=EUR/USD 58=OANDA transaction ID(s): 511860849. 60=20140416-16:00:58 150=2 151=0 10=187 ]
20140416-16:00:58.933858Z Execution Report received
20140416-16:00:58.934166Z send: [8=FIX.4.2 9=115 35=V 34=57 49=winxton 52=20140416-16:00:58 56=OANDA 262=mdreq_92209 263=0 264=1 267=2 269=0 269=1 146=1 55=EUR/USD 10=101 ]
20140416-16:00:58.952642Z recv: [8=FIX.4.2 9=203 35=W 34=58 49=OANDA 52=20140416-16:00:58.941 56=winxton 55=EUR/USD 262=mdreq_92209 268=2 269=0 270=1.38212 271=10000000 272=20140416 273=16:00:57 269=1 270=1.38223 271=10000000 272=20140416 273=16:00:57 10=012 ]
20140416-16:00:58.952663Z mdr successful
20140416-16:00:58.952844Z send: [8=FIX.4.2 9=137 35=D 34=58 49=winxton 52=20140416-16:00:58 56=OANDA 1=3922748 11=test_open_13600 21=1 38=1 40=1 54=1 60=20140416-16:00:58.952 55=EUR/USD 10=146 ]
20140416-16:00:58.975796Z recv: [8=FIX.4.2 9=254 35=8 34=59 49=OANDA 52=20140416-16:00:58.966 56=winxton 1=3922748 6=1.38223 11=test_open_13600 14=1 17=T511860850 20=0 21=1 31=1.38223 32=1 37=8774353 38=1 39=2 40=1 54=1 55=EUR/USD 58=OANDA transaction ID(s): 511860850. 60=20140416-16:00:58 150=2 151=0 10=075 ]
20140416-16:00:58.975866Z Execution Report received
20140416-16:00:58.976182Z send: [8=FIX.4.2 9=104 35=H 34=59 49=winxton 52=20140416-16:00:58 56=OANDA 11=test_open_13600 54=1 55=EUR/USD 790=status_90565 10=065 ]
20140416-16:00:58.994525Z recv: [8=FIX.4.2 9=246 35=8 34=60 49=OANDA 52=20140416-16:00:58.985 56=winxton 1=3922748 6=1.38223 11=test_open_13600 14=1 17=0 20=3 21=1 37=8774353 38=1 39=2 40=1 54=1 55=EUR/USD 58=OANDA transaction ID(s): 511860850. 60=20140416-16:00:58 150=2 151=0 790=status_90565 10=101 ]
20140416-16:00:58.994577Z Execution Report received
20140416-16:00:58.994925Z send: [8=FIX.4.2 9=138 35=D 34=60 49=winxton 52=20140416-16:00:58 56=OANDA 1=3922748 11=test_close_43060 21=1 38=1 40=1 54=2 60=20140416-16:00:58.994 55=EUR/USD 10=250 ]
20140416-16:00:59.015928Z recv: [8=FIX.4.2 9=255 35=8 34=61 49=OANDA 52=20140416-16:00:59.007 56=winxton 1=3922748 6=1.38212 11=test_close_43060 14=1 17=T511860851 20=0 21=1 31=1.38212 32=1 37=8774354 38=1 39=2 40=1 54=2 55=EUR/USD 58=OANDA transaction ID(s): 511860851. 60=20140416-16:00:59 150=2 151=0 10=160 ]
20140416-16:00:59.016001Z Execution Report received
20140416-16:00:59.016342Z send: [8=FIX.4.2 9=115 35=V 34=61 49=winxton 52=20140416-16:00:59 56=OANDA 262=mdreq_99375 263=0 264=1 267=2 269=0 269=1 146=1 55=EUR/USD 10=108 ]
20140416-16:00:59.031612Z recv: [8=FIX.4.2 9=203 35=W 34=62 49=OANDA 52=20140416-16:00:59.023 56=winxton 55=EUR/USD 262=mdreq_99375 268=2 269=0 270=1.38212 271=10000000 272=20140416 273=16:00:57 269=1 270=1.38223 271=10000000 272=20140416 273=16:00:57 10=010 ]
20140416-16:00:59.031653Z mdr successful
20140416-16:00:59.032028Z send: [8=FIX.4.2 9=137 35=D 34=62 49=winxton 52=20140416-16:00:59 56=OANDA 1=3922748 11=test_open_52190 21=1 38=1 40=1 54=1 60=20140416-16:00:59.031 55=EUR/USD 10=138 ]
20140416-16:00:59.052780Z recv: [8=FIX.4.2 9=254 35=8 34=63 49=OANDA 52=20140416-16:00:59.044 56=winxton 1=3922748 6=1.38223 11=test_open_52190 14=1 17=T511860853 20=0 21=1 31=1.38223 32=1 37=8774355 38=1 39=2 40=1 54=1 55=EUR/USD 58=OANDA transaction ID(s): 511860853. 60=20140416-16:00:59 150=2 151=0 10=074 ]
20140416-16:00:59.052883Z Execution Report received
20140416-16:00:59.053180Z send: [8=FIX.4.2 9=104 35=H 34=63 49=winxton 52=20140416-16:00:59 56=OANDA 11=test_open_52190 54=1 55=EUR/USD 790=status_44175 10=064 ]
20140416-16:00:59.072025Z recv: [8=FIX.4.2 9=246 35=8 34=64 49=OANDA 52=20140416-16:00:59.063 56=winxton 1=3922748 6=1.38223 11=test_open_52190 14=1 17=0 20=3 21=1 37=8774355 38=1 39=2 40=1 54=1 55=EUR/USD 58=OANDA transaction ID(s): 511860853. 60=20140416-16:00:59 150=2 151=0 790=status_44175 10=102 ]
20140416-16:00:59.072096Z Execution Report received
20140416-16:00:59.072469Z send: [8=FIX.4.2 9=138 35=D 34=64 49=winxton 52=20140416-16:00:59 56=OANDA 1=3922748 11=test_close_38243 21=1 38=1 40=1 54=2 60=20140416-16:00:59.072 55=EUR/USD 10=250 ]
20140416-16:00:59.095463Z recv: [8=FIX.4.2 9=255 35=8 34=65 49=OANDA 52=20140416-16:00:59.086 56=winxton 1=3922748 6=1.38212 11=test_close_38243 14=1 17=T511860854 20=0 21=1 31=1.38212 32=1 37=8774356 38=1 39=2 40=1 54=2 55=EUR/USD 58=OANDA transaction ID(s): 511860854. 60=20140416-16:00:59 150=2 151=0 10=186 ]
20140416-16:00:59.095503Z Execution Report received
20140416-16:00:59.095664Z send: [8=FIX.4.2 9=115 35=V 34=65 49=winxton 52=20140416-16:00:59 56=OANDA 262=mdreq_91401 263=0 264=1 267=2 269=0 269=1 146=1 55=EUR/USD 10=094 ]
20140416-16:00:59.111728Z recv: [8=FIX.4.2 9=203 35=W 34=66 49=OANDA 52=20140416-16:00:59.102 56=winxton 55=EUR/USD 262=mdreq_91401 268=2 269=0 270=1.38212 271=10000000 272=20140416 273=16:00:57 269=1 270=1.38223 271=10000000 272=20140416 273=16:00:57 10=250 ]
20140416-16:00:59.111787Z mdr successful
20140416-16:00:59.112182Z send: [8=FIX.4.2 9=137 35=D 34=66 49=winxton 52=20140416-16:00:59 56=OANDA 1=3922748 11=test_open_31611 21=1 38=1 40=1 54=1 60=20140416-16:00:59.111 55=EUR/USD 10=136 ]
20140416-16:00:59.132850Z recv: [8=FIX.4.2 9=254 35=8 34=67 49=OANDA 52=20140416-16:00:59.124 56=winxton 1=3922748 6=1.38223 11=test_open_31611 14=1 17=T511860855 20=0 21=1 31=1.38223 32=1 37=8774357 38=1 39=2 40=1 54=1 55=EUR/USD 58=OANDA transaction ID(s): 511860855. 60=20140416-16:00:59 150=2 151=0 10=078 ]
20140416-16:00:59.132904Z Execution Report received
20140416-16:00:59.133197Z send: [8=FIX.4.2 9=104 35=H 34=67 49=winxton 52=20140416-16:00:59 56=OANDA 11=test_open_31611 54=1 55=EUR/USD 790=status_35194 10=064 ]
20140416-16:00:59.154875Z recv: [8=FIX.4.2 9=246 35=8 34=68 49=OANDA 52=20140416-16:00:59.146 56=winxton 1=3922748 6=1.38223 11=test_open_31611 14=1 17=0 20=3 21=1 37=8774357 38=1 39=2 40=1 54=1 55=EUR/USD 58=OANDA transaction ID(s): 511860855. 60=20140416-16:00:59 150=2 151=0 790=status_35194 10=108 ]
20140416-16:00:59.154930Z Execution Report received
20140416-16:00:59.155282Z send: [8=FIX.4.2 9=138 35=D 34=68 49=winxton 52=20140416-16:00:59 56=OANDA 1=3922748 11=test_close_89649 21=1 38=1 40=1 54=2 60=20140416-16:00:59.154 55=EUR/USD 10=015 ]
20140416-16:00:59.177053Z recv: [8=FIX.4.2 9=255 35=8 34=69 49=OANDA 52=20140416-16:00:59.168 56=winxton 1=3922748 6=1.38212 11=test_close_89649 14=1 17=T511860858 20=0 21=1 31=1.38212 32=1 37=8774358 38=1 39=2 40=1 54=2 55=EUR/USD 58=OANDA transaction ID(s): 511860858. 60=20140416-16:00:59 150=2 151=0 10=217 ]
20140416-16:00:59.177104Z Execution Report received
20140416-16:00:59.177420Z send: [8=FIX.4.2 9=115 35=V 34=69 49=winxton 52=20140416-16:00:59 56=OANDA 262=mdreq_75464 263=0 264=1 267=2 269=0 269=1 146=1 55=EUR/USD 10=109 ]
20140416-16:00:59.193145Z recv: [8=FIX.4.2 9=203 35=W 34=70 49=OANDA 52=20140416-16:00:59.184 56=winxton 55=EUR/USD 262=mdreq_75464 268=2 269=0 270=1.38212 271=10000000 272=20140416 273=16:00:57 269=1 270=1.38223 271=10000000 272=20140416 273=16:00:57 10=010 ]
20140416-16:00:59.193186Z mdr successful
20140416-16:00:59.193558Z send: [8=FIX.4.2 9=137 35=D 34=70 49=winxton 52=20140416-16:00:59 56=OANDA 1=3922748 11=test_open_47248 21=1 38=1 40=1 54=1 60=20140416-16:00:59.193 55=EUR/USD 10=154 ]
20140416-16:00:59.214695Z recv: [8=FIX.4.2 9=254 35=8 34=71 49=OANDA 52=20140416-16:00:59.206 56=winxton 1=3922748 6=1.38223 11=test_open_47248 14=1 17=T511860859 20=0 21=1 31=1.38223 32=1 37=8774359 38=1 39=2 40=1 54=1 55=EUR/USD 58=OANDA transaction ID(s): 511860859. 60=20140416-16:00:59 150=2 151=0 10=097 ]
20140416-16:00:59.214747Z Execution Report received
20140416-16:00:59.215037Z send: [8=FIX.4.2 9=104 35=H 34=71 49=winxton 52=20140416-16:00:59 56=OANDA 11=test_open_47248 54=1 55=EUR/USD 790=status_69796 10=087 ]
20140416-16:00:59.232656Z recv: [8=FIX.4.2 9=246 35=8 34=72 49=OANDA 52=20140416-16:00:59.223 56=winxton 1=3922748 6=1.38223 11=test_open_47248 14=1 17=0 20=3 21=1 37=8774359 38=1 39=2 40=1 54=1 55=EUR/USD 58=OANDA transaction ID(s): 511860859. 60=20140416-16:00:59 150=2 151=0 790=status_69796 10=133 ]
20140416-16:00:59.232708Z Execution Report received
20140416-16:00:59.233059Z send: [8=FIX.4.2 9=138 35=D 34=72 49=winxton 52=20140416-16:00:59 56=OANDA 1=3922748 11=test_close_85491 21=1 38=1 40=1 54=2 60=20140416-16:00:59.232 55=EUR/USD 10=254 ]
20140416-16:00:59.254338Z recv: [8=FIX.4.2 9=255 35=8 34=73 49=OANDA 52=20140416-16:00:59.244 56=winxton 1=3922748 6=1.38212 11=test_close_85491 14=1 17=T511860861 20=0 21=1 31=1.38212 32=1 37=8774360 38=1 39=2 40=1 54=2 55=EUR/USD 58=OANDA transaction ID(s): 511860861. 60=20140416-16:00:59 150=2 151=0 10=179 ]
20140416-16:00:59.254390Z Execution Report received
20140416-16:00:59.254705Z send: [8=FIX.4.2 9=115 35=V 34=73 49=winxton 52=20140416-16:00:59 56=OANDA 262=mdreq_44411 263=0 264=1 267=2 269=0 269=1 146=1 55=EUR/USD 10=092 ]
20140416-16:00:59.270010Z recv: [8=FIX.4.2 9=203 35=W 34=74 49=OANDA 52=20140416-16:00:59.261 56=winxton 55=EUR/USD 262=mdreq_44411 268=2 269=0 270=1.38212 271=10000000 272=20140416 273=16:00:57 269=1 270=1.38223 271=10000000 272=20140416 273=16:00:57 10=254 ]
20140416-16:00:59.270051Z mdr successful
20140416-16:00:59.270423Z send: [8=FIX.4.2 9=137 35=D 34=74 49=winxton 52=20140416-16:00:59 56=OANDA 1=3922748 11=test_open_67118 21=1 38=1 40=1 54=1 60=20140416-16:00:59.270 55=EUR/USD 10=152 ]
20140416-16:00:59.290394Z recv: [8=FIX.4.2 9=254 35=8 34=75 49=OANDA 52=20140416-16:00:59.282 56=winxton 1=3922748 6=1.38223 11=test_open_67118 14=1 17=T511860863 20=0 21=1 31=1.38223 32=1 37=8774361 38=1 39=2 40=1 54=1 55=EUR/USD 58=OANDA transaction ID(s): 511860863. 60=20140416-16:00:59 150=2 151=0 10=086 ]
20140416-16:00:59.290446Z Execution Report received
20140416-16:00:59.290736Z send: [8=FIX.4.2 9=104 35=H 34=75 49=winxton 52=20140416-16:00:59 56=OANDA 11=test_open_67118 54=1 55=EUR/USD 790=status_72339 10=076 ]
20140416-16:00:59.308074Z recv: [8=FIX.4.2 9=246 35=8 34=76 49=OANDA 52=20140416-16:00:59.299 56=winxton 1=3922748 6=1.38223 11=test_open_67118 14=1 17=0 20=3 21=1 37=8774361 38=1 39=2 40=1 54=1 55=EUR/USD 58=OANDA transaction ID(s): 511860863. 60=20140416-16:00:59 150=2 151=0 790=status_72339 10=123 ]
20140416-16:00:59.308126Z Execution Report received
20140416-16:00:59.308476Z send: [8=FIX.4.2 9=138 35=D 34=76 49=winxton 52=20140416-16:00:59 56=OANDA 1=3922748 11=test_close_50337 21=1 38=1 40=1 54=2 60=20140416-16:00:59.308 55=EUR/USD 10=253 ]
20140416-16:00:59.329421Z recv: [8=FIX.4.2 9=255 35=8 34=77 49=OANDA 52=20140416-16:00:59.320 56=winxton 1=3922748 6=1.38212 11=test_close_50337 14=1 17=T511860864 20=0 21=1 31=1.38212 32=1 37=8774362 38=1 39=2 40=1 54=2 55=EUR/USD 58=OANDA transaction ID(s): 511860864. 60=20140416-16:00:59 150=2 151=0 10=177 ]
20140416-16:00:59.329472Z Execution Report received
20140416-16:00:59.329790Z send: [8=FIX.4.2 9=115 35=V 34=77 49=winxton 52=20140416-16:00:59 56=OANDA 262=mdreq_11130 263=0 264=1 267=2 269=0 269=1 146=1 55=EUR/USD 10=088 ]
20140416-16:00:59.348083Z recv: [8=FIX.4.2 9=203 35=W 34=78 49=OANDA 52=20140416-16:00:59.337 56=winxton 55=EUR/USD 262=mdreq_11130 268=2 269=0 270=1.38212 271=10000000 272=20140416 273=16:00:57 269=1 270=1.38223 271=10000000 272=20140416 273=16:00:57 10=254 ]
20140416-16:00:59.348124Z mdr successful
20140416-16:00:59.348494Z send: [8=FIX.4.2 9=137 35=D 34=78 49=winxton 52=20140416-16:00:59 56=OANDA 1=3922748 11=test_open_52533 21=1 38=1 40=1 54=1 60=20140416-16:00:59.348 55=EUR/USD 10=157 ]
20140416-16:00:59.369530Z recv: [8=FIX.4.2 9=254 35=8 34=79 49=OANDA 52=20140416-16:00:59.360 56=winxton 1=3922748 6=1.38223 11=test_open_52533 14=1 17=T511860865 20=0 21=1 31=1.38223 32=1 37=8774363 38=1 39=2 40=1 54=1 55=EUR/USD 58=OANDA transaction ID(s): 511860865. 60=20140416-16:00:59 150=2 151=0 10=088 ]
20140416-16:00:59.369587Z Execution Report received
20140416-16:00:59.369886Z send: [8=FIX.4.2 9=104 35=H 34=79 49=winxton 52=20140416-16:00:59 56=OANDA 11=test_open_52533 54=1 55=EUR/USD 790=status_46449 10=078 ]
20140416-16:00:59.386700Z recv: [8=FIX.4.2 9=246 35=8 34=80 49=OANDA 52=20140416-16:00:59.378 56=winxton 1=3922748 6=1.38223 11=test_open_52533 14=1 17=0 20=3 21=1 37=8774363 38=1 39=2 40=1 54=1 55=EUR/USD 58=OANDA transaction ID(s): 511860865. 60=20140416-16:00:59 150=2 151=0 790=status_46449 10=118 ]
20140416-16:00:59.386753Z Execution Report received
20140416-16:00:59.387104Z send: [8=FIX.4.2 9=138 35=D 34=80 49=winxton 52=20140416-16:00:59 56=OANDA 1=3922748 11=test_close_19956 21=1 38=1 40=1 54=2 60=20140416-16:00:59.386 55=EUR/USD 10=010 ]
20140416-16:00:59.410458Z recv: [8=FIX.4.2 9=255 35=8 34=81 49=OANDA 52=20140416-16:00:59.400 56=winxton 1=3922748 6=1.38212 11=test_close_19956 14=1 17=T511860866 20=0 21=1 31=1.38212 32=1 37=8774364 38=1 39=2 40=1 54=2 55=EUR/USD 58=OANDA transaction ID(s): 511860866. 60=20140416-16:00:59 150=2 151=0 10=189 ]
20140416-16:00:59.410509Z Execution Report received
20140416-16:00:59.410823Z send: [8=FIX.4.2 9=115 35=V 34=81 49=winxton 52=20140416-16:00:59 56=OANDA 262=mdreq_53130 263=0 264=1 267=2 269=0 269=1 146=1 55=EUR/USD 10=089 ]
20140416-16:00:59.427626Z recv: [8=FIX.4.2 9=203 35=W 34=82 49=OANDA 52=20140416-16:00:59.418 56=winxton 55=EUR/USD 262=mdreq_53130 268=2 269=0 270=1.38212 271=10000000 272=20140416 273=16:00:57 269=1 270=1.38223 271=10000000 272=20140416 273=16:00:57 10=255 ]
20140416-16:00:59.427667Z mdr successful
20140416-16:00:59.428038Z send: [8=FIX.4.2 9=137 35=D 34=82 49=winxton 52=20140416-16:00:59 56=OANDA 1=3922748 11=test_open_93314 21=1 38=1 40=1 54=1 60=20140416-16:00:59.427 55=EUR/USD 10=152 ]
20140416-16:00:59.450302Z recv: [8=FIX.4.2 9=254 35=8 34=83 49=OANDA 52=20140416-16:00:59.441 56=winxton 1=3922748 6=1.38223 11=test_open_93314 14=1 17=T511860867 20=0 21=1 31=1.38223 32=1 37=8774365 38=1 39=2 40=1 54=1 55=EUR/USD 58=OANDA transaction ID(s): 511860867. 60=20140416-16:00:59 150=2 151=0 10=091 ]
20140416-16:00:59.450354Z Execution Report received
20140416-16:00:59.450644Z send: [8=FIX.4.2 9=104 35=H 34=83 49=winxton 52=20140416-16:00:59 56=OANDA 11=test_open_93314 54=1 55=EUR/USD 790=status_98821 10=076 ]
20140416-16:00:59.469593Z recv: [8=FIX.4.2 9=246 35=8 34=84 49=OANDA 52=20140416-16:00:59.460 56=winxton 1=3922748 6=1.38223 11=test_open_93314 14=1 17=0 20=3 21=1 37=8774365 38=1 39=2 40=1 54=1 55=EUR/USD 58=OANDA transaction ID(s): 511860867. 60=20140416-16:00:59 150=2 151=0 790=status_98821 10=121 ]
20140416-16:00:59.469676Z Execution Report received
20140416-16:00:59.470128Z send: [8=FIX.4.2 9=138 35=D 34=84 49=winxton 52=20140416-16:00:59 56=OANDA 1=3922748 11=test_close_36910 21=1 38=1 40=1 54=2 60=20140416-16:00:59.469 55=EUR/USD 10=005 ]
20140416-16:00:59.491679Z recv: [8=FIX.4.2 9=255 35=8 34=85 49=OANDA 52=20140416-16:00:59.482 56=winxton 1=3922748 6=1.38212 11=test_close_36910 14=1 17=T511860868 20=0 21=1 31=1.38212 32=1 37=8774366 38=1 39=2 40=1 54=2 55=EUR/USD 58=OANDA transaction ID(s): 511860868. 60=20140416-16:00:59 150=2 151=0 10=198 ]
20140416-16:00:59.491730Z Execution Report received
20140416-16:00:59.492045Z send: [8=FIX.4.2 9=115 35=V 34=85 49=winxton 52=20140416-16:00:59 56=OANDA 262=mdreq_28829 263=0 264=1 267=2 269=0 269=1 146=1 55=EUR/USD 10=110 ]
20140416-16:00:59.509278Z recv: [8=FIX.4.2 9=203 35=W 34=86 49=OANDA 52=20140416-16:00:59.499 56=winxton 55=EUR/USD 262=mdreq_28829 268=2 269=0 270=1.38212 271=10000000 272=20140416 273=16:00:57 269=1 270=1.38223 271=10000000 272=20140416 273=16:00:57 10=029 ]
20140416-16:00:59.509323Z mdr successful
20140416-16:00:59.509703Z send: [8=FIX.4.2 9=137 35=D 34=86 49=winxton 52=20140416-16:00:59 56=OANDA 1=3922748 11=test_open_86894 21=1 38=1 40=1 54=1 60=20140416-16:00:59.509 55=EUR/USD 10=172 ]
20140416-16:00:59.532174Z recv: [8=FIX.4.2 9=254 35=8 34=87 49=OANDA 52=20140416-16:00:59.522 56=winxton 1=3922748 6=1.38223 11=test_open_86894 14=1 17=T511860869 20=0 21=1 31=1.38223 32=1 37=8774367 38=1 39=2 40=1 54=1 55=EUR/USD 58=OANDA transaction ID(s): 511860869. 60=20140416-16:00:59 150=2 151=0 10=116 ]
20140416-16:00:59.532226Z Execution Report received
20140416-16:00:59.532517Z send: [8=FIX.4.2 9=104 35=H 34=87 49=winxton 52=20140416-16:00:59 56=OANDA 11=test_open_86894 54=1 55=EUR/USD 790=status_74657 10=096 ]
20140416-16:00:59.551269Z recv: [8=FIX.4.2 9=246 35=8 34=88 49=OANDA 52=20140416-16:00:59.542 56=winxton 1=3922748 6=1.38223 11=test_open_86894 14=1 17=0 20=3 21=1 37=8774367 38=1 39=2 40=1 54=1 55=EUR/USD 58=OANDA transaction ID(s): 511860869. 60=20140416-16:00:59 150=2 151=0 790=status_74657 10=146 ]
20140416-16:00:59.551320Z Execution Report received
20140416-16:00:59.551671Z send: [8=FIX.4.2 9=138 35=D 34=88 49=winxton 52=20140416-16:00:59 56=OANDA 1=3922748 11=test_close_83611 21=1 38=1 40=1 54=2 60=20140416-16:00:59.551 55=EUR/USD 10=001 ]
20140416-16:00:59.573052Z recv: [8=FIX.4.2 9=255 35=8 34=89 49=OANDA 52=20140416-16:00:59.564 56=winxton 1=3922748 6=1.38212 11=test_close_83611 14=1 17=T511860870 20=0 21=1 31=1.38212 32=1 37=8774368 38=1 39=2 40=1 54=2 55=EUR/USD 58=OANDA transaction ID(s): 511860870. 60=20140416-16:00:59 150=2 151=0 10=191 ]
20140416-16:00:59.573105Z Execution Report received
20140416-16:00:59.573419Z send: [8=FIX.4.2 9=115 35=V 34=89 49=winxton 52=20140416-16:00:59 56=OANDA 262=mdreq_47091 263=0 264=1 267=2 269=0 269=1 146=1 55=EUR/USD 10=106 ]
20140416-16:00:59.588717Z recv: [8=FIX.4.2 9=203 35=W 34=90 49=OANDA 52=20140416-16:00:59.580 56=winxton 55=EUR/USD 262=mdreq_47091 268=2 269=0 270=1.38212 271=10000000 272=20140416 273=16:00:57 269=1 270=1.38223 271=10000000 272=20140416 273=16:00:57 10=007 ]
20140416-16:00:59.588758Z mdr successful
20140416-16:00:59.589130Z send: [8=FIX.4.2 9=137 35=D 34=90 49=winxton 52=20140416-16:00:59 56=OANDA 1=3922748 11=test_open_90346 21=1 38=1 40=1 54=1 60=20140416-16:00:59.588 55=EUR/USD 10=161 ]
20140416-16:00:59.611327Z recv: [8=FIX.4.2 9=254 35=8 34=91 49=OANDA 52=20140416-16:00:59.602 56=winxton 1=3922748 6=1.38223 11=test_open_90346 14=1 17=T511860871 20=0 21=1 31=1.38223 32=1 37=8774369 38=1 39=2 40=1 54=1 55=EUR/USD 58=OANDA transaction ID(s): 511860871. 60=20140416-16:00:59 150=2 151=0 10=085 ]
20140416-16:00:59.611390Z Execution Report received
20140416-16:00:59.611696Z send: [8=FIX.4.2 9=104 35=H 34=91 49=winxton 52=20140416-16:00:59 56=OANDA 11=test_open_90346 54=1 55=EUR/USD 790=status_65042 10=066 ]
20140416-16:00:59.629822Z recv: [8=FIX.4.2 9=246 35=8 34=92 49=OANDA 52=20140416-16:00:59.620 56=winxton 1=3922748 6=1.38223 11=test_open_90346 14=1 17=0 20=3 21=1 37=8774369 38=1 39=2 40=1 54=1 55=EUR/USD 58=OANDA transaction ID(s): 511860871. 60=20140416-16:00:59 150=2 151=0 790=status_65042 10=108 ]
20140416-16:00:59.629874Z Execution Report received
20140416-16:00:59.630225Z send: [8=FIX.4.2 9=138 35=D 34=92 49=winxton 52=20140416-16:00:59 56=OANDA 1=3922748 11=test_close_81470 21=1 38=1 40=1 54=2 60=20140416-16:00:59.629 55=EUR/USD 10=003 ]
20140416-16:00:59.651978Z recv: [8=FIX.4.2 9=255 35=8 34=93 49=OANDA 52=20140416-16:00:59.642 56=winxton 1=3922748 6=1.38212 11=test_close_81470 14=1 17=T511860872 20=0 21=1 31=1.38212 32=1 37=8774370 38=1 39=2 40=1 54=2 55=EUR/USD 58=OANDA transaction ID(s): 511860872. 60=20140416-16:00:59 150=2 151=0 10=181 ]
20140416-16:00:59.652031Z Execution Report received
20140416-16:00:59.652354Z send: [8=FIX.4.2 9=115 35=V 34=93 49=winxton 52=20140416-16:00:59 56=OANDA 262=mdreq_48096 263=0 264=1 267=2 269=0 269=1 146=1 55=EUR/USD 10=107 ]
20140416-16:00:59.667868Z recv: [8=FIX.4.2 9=203 35=W 34=94 49=OANDA 52=20140416-16:00:59.659 56=winxton 55=EUR/USD 262=mdreq_48096 268=2 269=0 270=1.38212 271=10000000 272=20140416 273=16:00:57 269=1 270=1.38223 271=10000000 272=20140416 273=16:00:57 10=024 ]
20140416-16:00:59.667910Z mdr successful
20140416-16:00:59.668283Z send: [8=FIX.4.2 9=137 35=D 34=94 49=winxton 52=20140416-16:00:59 56=OANDA 1=3922748 11=test_open_90494 21=1 38=1 40=1 54=1 60=20140416-16:00:59.667 55=EUR/USD 10=167 ]
20140416-16:00:59.690503Z recv: [8=FIX.4.2 9=254 35=8 34=95 49=OANDA 52=20140416-16:00:59.680 56=winxton 1=3922748 6=1.38223 11=test_open_90494 14=1 17=T511860873 20=0 21=1 31=1.38223 32=1 37=8774371 38=1 39=2 40=1 54=1 55=EUR/USD 58=OANDA transaction ID(s): 511860873. 60=20140416-16:00:59 150=2 151=0 10=096 ]
20140416-16:00:59.690570Z Execution Report received
20140416-16:00:59.690909Z send: [8=FIX.4.2 9=104 35=H 34=95 49=winxton 52=20140416-16:00:59 56=OANDA 11=test_open_90494 54=1 55=EUR/USD 790=status_80022 10=069 ]
20140416-16:00:59.720753Z recv: [8=FIX.4.2 9=246 35=8 34=96 49=OANDA 52=20140416-16:00:59.709 56=winxton 1=3922748 6=1.38223 11=test_open_90494 14=1 17=0 20=3 21=1 37=8774371 38=1 39=2 40=1 54=1 55=EUR/USD 58=OANDA transaction ID(s): 511860873. 60=20140416-16:00:59 150=2 151=0 790=status_80022 10=114 ]
20140416-16:00:59.720827Z Execution Report received
20140416-16:00:59.721200Z send: [8=FIX.4.2 9=138 35=D 34=96 49=winxton 52=20140416-16:00:59 56=OANDA 1=3922748 11=test_close_91380 21=1 38=1 40=1 54=2 60=20140416-16:00:59.720 55=EUR/USD 10=000 ]
20140416-16:00:59.758571Z recv: [8=FIX.4.2 9=255 35=8 34=97 49=OANDA 52=20140416-16:00:59.749 56=winxton 1=3922748 6=1.38212 11=test_close_91380 14=1 17=T511860874 20=0 21=1 31=1.38212 32=1 37=8774372 38=1 39=2 40=1 54=2 55=EUR/USD 58=OANDA transaction ID(s): 511860874. 60=20140416-16:00:59 150=2 151=0 10=200 ]
20140416-16:00:59.758629Z Execution Report received
20140416-16:00:59.758954Z send: [8=FIX.4.2 9=115 35=V 34=97 49=winxton 52=20140416-16:00:59 56=OANDA 262=mdreq_87852 263=0 264=1 267=2 269=0 269=1 146=1 55=EUR/USD 10=114 ]
20140416-16:00:59.775031Z recv: [8=FIX.4.2 9=203 35=W 34=98 49=OANDA 52=20140416-16:00:59.766 56=winxton 55=EUR/USD 262=mdreq_87852 268=2 269=0 270=1.38212 271=10000000 272=20140416 273=16:00:57 269=1 270=1.38223 271=10000000 272=20140416 273=16:00:57 10=030 ]
20140416-16:00:59.775073Z mdr successful
20140416-16:00:59.775445Z send: [8=FIX.4.2 9=137 35=D 34=98 49=winxton 52=20140416-16:00:59 56=OANDA 1=3922748 11=test_open_85265 21=1 38=1 40=1 54=1 60=20140416-16:00:59.775 55=EUR/USD 10=171 ]
20140416-16:00:59.796871Z recv: [8=FIX.4.2 9=254 35=8 34=99 49=OANDA 52=20140416-16:00:59.787 56=winxton 1=3922748 6=1.38223 11=test_open_85265 14=1 17=T511860875 20=0 21=1 31=1.38223 32=1 37=8774373 38=1 39=2 40=1 54=1 55=EUR/USD 58=OANDA transaction ID(s): 511860875. 60=20140416-16:00:59 150=2 151=0 10=114 ]
20140416-16:00:59.796922Z Execution Report received
20140416-16:00:59.797212Z send: [8=FIX.4.2 9=104 35=H 34=99 49=winxton 52=20140416-16:00:59 56=OANDA 11=test_open_85265 54=1 55=EUR/USD 790=status_72588 10=091 ]
20140416-16:00:59.816308Z recv: [8=FIX.4.2 9=247 35=8 34=100 49=OANDA 52=20140416-16:00:59.807 56=winxton 1=3922748 6=1.38223 11=test_open_85265 14=1 17=0 20=3 21=1 37=8774373 38=1 39=2 40=1 54=1 55=EUR/USD 58=OANDA transaction ID(s): 511860875. 60=20140416-16:00:59 150=2 151=0 790=status_72588 10=170 ]
20140416-16:00:59.816364Z Execution Report received
20140416-16:00:59.816731Z send: [8=FIX.4.2 9=139 35=D 34=100 49=winxton 52=20140416-16:00:59 56=OANDA 1=3922748 11=test_close_75173 21=1 38=1 40=1 54=2 60=20140416-16:00:59.816 55=EUR/USD 10=043 ]
20140416-16:00:59.838157Z recv: [8=FIX.4.2 9=256 35=8 34=101 49=OANDA 52=20140416-16:00:59.829 56=winxton 1=3922748 6=1.38212 11=test_close_75173 14=1 17=T511860876 20=0 21=1 31=1.38212 32=1 37=8774374 38=1 39=2 40=1 54=2 55=EUR/USD 58=OANDA transaction ID(s): 511860876. 60=20140416-16:00:59 150=2 151=0 10=242 ]
20140416-16:00:59.838208Z Execution Report received
20140416-16:00:59.838522Z send: [8=FIX.4.2 9=116 35=V 34=101 49=winxton 52=20140416-16:00:59 56=OANDA 262=mdreq_73688 263=0 264=1 267=2 269=0 269=1 146=1 55=EUR/USD 10=151 ]
20140416-16:00:59.855536Z recv: [8=FIX.4.2 9=204 35=W 34=102 49=OANDA 52=20140416-16:00:59.845 56=winxton 55=EUR/USD 262=mdreq_73688 268=2 269=0 270=1.38212 271=10000000 272=20140416 273=16:00:57 269=1 270=1.38223 271=10000000 272=20140416 273=16:00:57 10=065 ]
20140416-16:00:59.855578Z mdr successful
20140416-16:00:59.855955Z send: [8=FIX.4.2 9=138 35=D 34=102 49=winxton 52=20140416-16:00:59 56=OANDA 1=3922748 11=test_open_87895 21=1 38=1 40=1 54=1 60=20140416-16:00:59.855 55=EUR/USD 10=216 ]
20140416-16:00:59.879905Z recv: [8=FIX.4.2 9=255 35=8 34=103 49=OANDA 52=20140416-16:00:59.869 56=winxton 1=3922748 6=1.38223 11=test_open_87895 14=1 17=T511860877 20=0 21=1 31=1.38223 32=1 37=8774375 38=1 39=2 40=1 54=1 55=EUR/USD 58=OANDA transaction ID(s): 511860877. 60=20140416-16:00:59 150=2 151=0 10=167 ]
20140416-16:00:59.879956Z Execution Report received
20140416-16:00:59.880253Z send: [8=FIX.4.2 9=105 35=H 34=103 49=winxton 52=20140416-16:00:59 56=OANDA 11=test_open_87895 54=1 55=EUR/USD 790=status_59540 10=130 ]
20140416-16:00:59.899053Z recv: [8=FIX.4.2 9=247 35=8 34=104 49=OANDA 52=20140416-16:00:59.889 56=winxton 1=3922748 6=1.38223 11=test_open_87895 14=1 17=0 20=3 21=1 37=8774375 38=1 39=2 40=1 54=1 55=EUR/USD 58=OANDA transaction ID(s): 511860877. 60=20140416-16:00:59 150=2 151=0 790=status_59540 10=192 ]
20140416-16:00:59.899106Z Execution Report received
20140416-16:00:59.899458Z send: [8=FIX.4.2 9=139 35=D 34=104 49=winxton 52=20140416-16:00:59 56=OANDA 1=3922748 11=test_close_54784 21=1 38=1 40=1 54=2 60=20140416-16:00:59.899 55=EUR/USD 10=063 ]
20140416-16:00:59.921738Z recv: [8=FIX.4.2 9=256 35=8 34=105 49=OANDA 52=20140416-16:00:59.912 56=winxton 1=3922748 6=1.38212 11=test_close_54784 14=1 17=T511860879 20=0 21=1 31=1.38212 32=1 37=8774376 38=1 39=2 40=1 54=2 55=EUR/USD 58=OANDA transaction ID(s): 511860879. 60=20140416-16:00:59 150=2 151=0 10=252 ]
20140416-16:00:59.921789Z Execution Report received
20140416-16:00:59.922101Z send: [8=FIX.4.2 9=116 35=V 34=105 49=winxton 52=20140416-16:00:59 56=OANDA 262=mdreq_26660 263=0 264=1 267=2 269=0 269=1 146=1 55=EUR/USD 10=143 ]
20140416-16:00:59.940741Z recv: [8=FIX.4.2 9=204 35=W 34=106 49=OANDA 52=20140416-16:00:59.931 56=winxton 55=EUR/USD 262=mdreq_26660 268=2 269=0 270=1.38212 271=10000000 272=20140416 273=16:00:57 269=1 270=1.38223 271=10000000 272=20140416 273=16:00:57 10=053 ]
20140416-16:00:59.940782Z mdr successful
20140416-16:00:59.941156Z send: [8=FIX.4.2 9=138 35=D 34=106 49=winxton 52=20140416-16:00:59 56=OANDA 1=3922748 11=test_open_21464 21=1 38=1 40=1 54=1 60=20140416-16:00:59.940 55=EUR/USD 10=195 ]
20140416-16:00:59.963940Z recv: [8=FIX.4.2 9=255 35=8 34=107 49=OANDA 52=20140416-16:00:59.954 56=winxton 1=3922748 6=1.38223 11=test_open_21464 14=1 17=T511860880 20=0 21=1 31=1.38223 32=1 37=8774377 38=1 39=2 40=1 54=1 55=EUR/USD 58=OANDA transaction ID(s): 511860880. 60=20140416-16:00:59 150=2 151=0 10=136 ]
20140416-16:00:59.963992Z Execution Report received
20140416-16:00:59.964287Z send: [8=FIX.4.2 9=105 35=H 34=107 49=winxton 52=20140416-16:00:59 56=OANDA 11=test_open_21464 54=1 55=EUR/USD 790=status_47813 10=114 ]
20140416-16:00:59.982473Z recv: [8=FIX.4.2 9=247 35=8 34=108 49=OANDA 52=20140416-16:00:59.973 56=winxton 1=3922748 6=1.38223 11=test_open_21464 14=1 17=0 20=3 21=1 37=8774377 38=1 39=2 40=1 54=1 55=EUR/USD 58=OANDA transaction ID(s): 511860880. 60=20140416-16:00:59 150=2 151=0 790=status_47813 10=166 ]
20140416-16:00:59.982537Z Execution Report received
20140416-16:00:59.982902Z send: [8=FIX.4.2 9=139 35=D 34=108 49=winxton 52=20140416-16:00:59 56=OANDA 1=3922748 11=test_close_95893 21=1 38=1 40=1 54=2 60=20140416-16:00:59.982 55=EUR/USD 10=066 ]
20140416-16:01:00.004652Z recv: [8=FIX.4.2 9=256 35=8 34=109 49=OANDA 52=20140416-16:00:59.995 56=winxton 1=3922748 6=1.38212 11=test_close_95893 14=1 17=T511860881 20=0 21=1 31=1.38212 32=1 37=8774378 38=1 39=2 40=1 54=2 55=EUR/USD 58=OANDA transaction ID(s): 511860881. 60=20140416-16:00:59 150=2 151=0 10=005 ]
20140416-16:01:00.004722Z Execution Report received
20140416-16:01:00.005059Z send: [8=FIX.4.2 9=116 35=V 34=109 49=winxton 52=20140416-16:01:00 56=OANDA 262=mdreq_50500 263=0 264=1 267=2 269=0 269=1 146=1 55=EUR/USD 10=124 ]
20140416-16:01:00.023429Z recv: [8=FIX.4.2 9=204 35=W 34=110 49=OANDA 52=20140416-16:01:00.012 56=winxton 55=EUR/USD 262=mdreq_50500 268=2 269=0 270=1.38212 271=10000000 272=20140416 273=16:00:57 269=1 270=1.38223 271=10000000 272=20140416 273=16:00:57 10=015 ]
20140416-16:01:00.023475Z mdr successful
20140416-16:01:00.023877Z send: [8=FIX.4.2 9=138 35=D 34=110 49=winxton 52=20140416-16:01:00 56=OANDA 1=3922748 11=test_open_75695 21=1 38=1 40=1 54=1 60=20140416-16:01:00.023 55=EUR/USD 10=171 ]
20140416-16:01:00.045757Z recv: [8=FIX.4.2 9=255 35=8 34=111 49=OANDA 52=20140416-16:01:00.036 56=winxton 1=3922748 6=1.38223 11=test_open_75695 14=1 17=T511860882 20=0 21=1 31=1.38223 32=1 37=8774379 38=1 39=2 40=1 54=1 55=EUR/USD 58=OANDA transaction ID(s): 511860882. 60=20140416-16:01:00 150=2 151=0 10=117 ]
20140416-16:01:00.045809Z Execution Report received
20140416-16:01:00.046098Z send: [8=FIX.4.2 9=105 35=H 34=111 49=winxton 52=20140416-16:01:00 56=OANDA 11=test_open_75695 54=1 55=EUR/USD 790=status_20057 10=102 ]
20140416-16:01:00.068548Z recv: [8=FIX.4.2 9=247 35=8 34=112 49=OANDA 52=20140416-16:01:00.058 56=winxton 1=3922748 6=1.38223 11=test_open_75695 14=1 17=0 20=3 21=1 37=8774379 38=1 39=2 40=1 54=1 55=EUR/USD 58=OANDA transaction ID(s): 511860882. 60=20140416-16:01:00 150=2 151=0 790=status_20057 10=139 ]
20140416-16:01:00.068638Z Execution Report received
20140416-16:01:00.069011Z send: [8=FIX.4.2 9=139 35=D 34=112 49=winxton 52=20140416-16:01:00 56=OANDA 1=3922748 11=test_close_70629 21=1 38=1 40=1 54=2 60=20140416-16:01:00.068 55=EUR/USD 10=020 ]
20140416-16:01:00.093530Z recv: [8=FIX.4.2 9=256 35=8 34=113 49=OANDA 52=20140416-16:01:00.084 56=winxton 1=3922748 6=1.38212 11=test_close_70629 14=1 17=T511860883 20=0 21=1 31=1.38212 32=1 37=8774380 38=1 39=2 40=1 54=2 55=EUR/USD 58=OANDA transaction ID(s): 511860883. 60=20140416-16:01:00 150=2 151=0 10=206 ]
20140416-16:01:00.093597Z Execution Report received
20140416-16:01:00.093935Z send: [8=FIX.4.2 9=116 35=V 34=113 49=winxton 52=20140416-16:01:00 56=OANDA 262=mdreq_47514 263=0 264=1 267=2 269=0 269=1 146=1 55=EUR/USD 10=130 ]
20140416-16:01:00.109820Z recv: [8=FIX.4.2 9=204 35=W 34=114 49=OANDA 52=20140416-16:01:00.100 56=winxton 55=EUR/USD 262=mdreq_47514 268=2 269=0 270=1.38212 271=10000000 272=20140416 273=16:00:57 269=1 270=1.38223 271=10000000 272=20140416 273=16:00:57 10=028 ]
20140416-16:01:00.109869Z mdr successful
20140416-16:01:00.110253Z send: [8=FIX.4.2 9=138 35=D 34=114 49=winxton 52=20140416-16:01:00 56=OANDA 1=3922748 11=test_open_66084 21=1 38=1 40=1 54=1 60=20140416-16:01:00.109 55=EUR/USD 10=172 ]
20140416-16:01:00.142496Z recv: [8=FIX.4.2 9=255 35=8 34=115 49=OANDA 52=20140416-16:01:00.128 56=winxton 1=3922748 6=1.38223 11=test_open_66084 14=1 17=T511860885 20=0 21=1 31=1.38223 32=1 37=8774381 38=1 39=2 40=1 54=1 55=EUR/USD 58=OANDA transaction ID(s): 511860885. 60=20140416-16:01:00 150=2 151=0 10=114 ]
20140416-16:01:00.142550Z Execution Report received
20140416-16:01:00.142850Z send: [8=FIX.4.2 9=105 35=H 34=115 49=winxton 52=20140416-16:01:00 56=OANDA 11=test_open_66084 54=1 55=EUR/USD 790=status_53774 10=110 ]
20140416-16:01:00.170693Z recv: [8=FIX.4.2 9=247 35=8 34=116 49=OANDA 52=20140416-16:01:00.159 56=winxton 1=3922748 6=1.38223 11=test_open_66084 14=1 17=0 20=3 21=1 37=8774381 38=1 39=2 40=1 54=1 55=EUR/USD 58=OANDA transaction ID(s): 511860885. 60=20140416-16:01:00 150=2 151=0 790=status_53774 10=145 ]
20140416-16:01:00.170756Z Execution Report received
20140416-16:01:00.171156Z send: [8=FIX.4.2 9=139 35=D 34=116 49=winxton 52=20140416-16:01:00 56=OANDA 1=3922748 11=test_close_79083 21=1 38=1 40=1 54=2 60=20140416-16:01:00.170 55=EUR/USD 10=021 ]
20140416-16:01:00.193346Z recv: [8=FIX.4.2 9=256 35=8 34=117 49=OANDA 52=20140416-16:01:00.183 56=winxton 1=3922748 6=1.38212 11=test_close_79083 14=1 17=T511860886 20=0 21=1 31=1.38212 32=1 37=8774382 38=1 39=2 40=1 54=2 55=EUR/USD 58=OANDA transaction ID(s): 511860886. 60=20140416-16:01:00 150=2 151=0 10=221 ]
20140416-16:01:00.193413Z Execution Report received
20140416-16:01:00.193750Z send: [8=FIX.4.2 9=116 35=V 34=117 49=winxton 52=20140416-16:01:00 56=OANDA 262=mdreq_72076 263=0 264=1 267=2 269=0 269=1 146=1 55=EUR/USD 10=135 ]
20140416-16:01:00.212901Z recv: [8=FIX.4.2 9=204 35=W 34=118 49=OANDA 52=20140416-16:01:00.201 56=winxton 55=EUR/USD 262=mdreq_72076 268=2 269=0 270=1.38212 271=10000000 272=20140416 273=16:00:57 269=1 270=1.38223 271=10000000 272=20140416 273=16:00:57 10=035 ]
20140416-16:01:00.212959Z mdr successful
20140416-16:01:00.213355Z send: [8=FIX.4.2 9=138 35=D 34=118 49=winxton 52=20140416-16:01:00 56=OANDA 1=3922748 11=test_open_85556 21=1 38=1 40=1 54=1 60=20140416-16:01:00.213 55=EUR/USD 10=177 ]
20140416-16:01:00.240711Z recv: [8=FIX.4.2 9=255 35=8 34=119 49=OANDA 52=20140416-16:01:00.230 56=winxton 1=3922748 6=1.38223 11=test_open_85556 14=1 17=T511860887 20=0 21=1 31=1.38223 32=1 37=8774383 38=1 39=2 40=1 54=1 55=EUR/USD 58=OANDA transaction ID(s): 511860887. 60=20140416-16:01:00 150=2 151=0 10=123 ]
20140416-16:01:00.240777Z Execution Report received
20140416-16:01:00.241090Z send: [8=FIX.4.2 9=105 35=H 34=119 49=winxton 52=20140416-16:01:00 56=OANDA 11=test_open_85556 54=1 55=EUR/USD 790=status_49883 10=125 ]
20140416-16:01:00.263131Z recv: [8=FIX.4.2 9=247 35=8 34=120 49=OANDA 52=20140416-16:01:00.254 56=winxton 1=3922748 6=1.38223 11=test_open_85556 14=1 17=0 20=3 21=1 37=8774383 38=1 39=2 40=1 54=1 55=EUR/USD 58=OANDA transaction ID(s): 511860887. 60=20140416-16:01:00 150=2 151=0 790=status_49883 10=151 ]
20140416-16:01:00.263181Z Execution Report received
20140416-16:01:00.263533Z send: [8=FIX.4.2 9=139 35=D 34=120 49=winxton 52=20140416-16:01:00 56=OANDA 1=3922748 11=test_close_44534 21=1 38=1 40=1 54=2 60=20140416-16:01:00.263 55=EUR/USD 10=012 ]
20140416-16:01:00.285903Z recv: [8=FIX.4.2 9=256 35=8 34=121 49=OANDA 52=20140416-16:01:00.276 56=winxton 1=3922748 6=1.38212 11=test_close_44534 14=1 17=T511860888 20=0 21=1 31=1.38212 32=1 37=8774384 38=1 39=2 40=1 54=2 55=EUR/USD 58=OANDA transaction ID(s): 511860888. 60=20140416-16:01:00 150=2 151=0 10=218 ]
20140416-16:01:00.285959Z Execution Report received
20140416-16:01:00.286284Z send: [8=FIX.4.2 9=116 35=V 34=121 49=winxton 52=20140416-16:01:00 56=OANDA 262=mdreq_64454 263=0 264=1 267=2 269=0 269=1 146=1 55=EUR/USD 10=131 ]
20140416-16:01:00.303675Z recv: [8=FIX.4.2 9=204 35=W 34=122 49=OANDA 52=20140416-16:01:00.294 56=winxton 55=EUR/USD 262=mdreq_64454 268=2 269=0 270=1.38212 271=10000000 272=20140416 273=16:00:57 269=1 270=1.38223 271=10000000 272=20140416 273=16:00:57 10=043 ]
20140416-16:01:00.303736Z mdr successful
20140416-16:01:00.304136Z send: [8=FIX.4.2 9=138 35=D 34=122 49=winxton 52=20140416-16:01:00 56=OANDA 1=3922748 11=test_open_19764 21=1 38=1 40=1 54=1 60=20140416-16:01:00.303 55=EUR/USD 10=170 ]
20140416-16:01:00.326284Z recv: [8=FIX.4.2 9=255 35=8 34=123 49=OANDA 52=20140416-16:01:00.317 56=winxton 1=3922748 6=1.38223 11=test_open_19764 14=1 17=T511860889 20=0 21=1 31=1.38223 32=1 37=8774385 38=1 39=2 40=1 54=1 55=EUR/USD 58=OANDA transaction ID(s): 511860889. 60=20140416-16:01:00 150=2 151=0 10=128 ]
20140416-16:01:00.326336Z Execution Report received
20140416-16:01:00.326635Z send: [8=FIX.4.2 9=105 35=H 34=123 49=winxton 52=20140416-16:01:00 56=OANDA 11=test_open_19764 54=1 55=EUR/USD 790=status_71328 10=107 ]
20140416-16:01:00.348981Z recv: [8=FIX.4.2 9=247 35=8 34=124 49=OANDA 52=20140416-16:01:00.338 56=winxton 1=3922748 6=1.38223 11=test_open_19764 14=1 17=0 20=3 21=1 37=8774385 38=1 39=2 40=1 54=1 55=EUR/USD 58=OANDA transaction ID(s): 511860889. 60=20140416-16:01:00 150=2 151=0 790=status_71328 10=149 ]
20140416-16:01:00.349033Z Execution Report received
20140416-16:01:00.349385Z send: [8=FIX.4.2 9=139 35=D 34=124 49=winxton 52=20140416-16:01:00 56=OANDA 1=3922748 11=test_close_76733 21=1 38=1 40=1 54=2 60=20140416-16:01:00.349 55=EUR/USD 10=027 ]
20140416-16:01:00.374646Z recv: [8=FIX.4.2 9=256 35=8 34=125 49=OANDA 52=20140416-16:01:00.362 56=winxton 1=3922748 6=1.38212 11=test_close_76733 14=1 17=T511860890 20=0 21=1 31=1.38212 32=1 37=8774386 38=1 39=2 40=1 54=2 55=EUR/USD 58=OANDA transaction ID(s): 511860890. 60=20140416-16:01:00 150=2 151=0 10=212 ]
20140416-16:01:00.374698Z Execution Report received
20140416-16:01:00.375014Z send: [8=FIX.4.2 9=116 35=V 34=125 49=winxton 52=20140416-16:01:00 56=OANDA 262=mdreq_78020 263=0 264=1 267=2 269=0 269=1 146=1 55=EUR/USD 10=129 ]
20140416-16:01:00.392620Z recv: [8=FIX.4.2 9=204 35=W 34=126 49=OANDA 52=20140416-16:01:00.382 56=winxton 55=EUR/USD 262=mdreq_78020 268=2 269=0 270=1.38212 271=10000000 272=20140416 273=16:00:57 269=1 270=1.38223 271=10000000 272=20140416 273=16:00:57 10=039 ]
20140416-16:01:00.392661Z mdr successful
20140416-16:01:00.393038Z send: [8=FIX.4.2 9=138 35=D 34=126 49=winxton 52=20140416-16:01:00 56=OANDA 1=3922748 11=test_open_10857 21=1 38=1 40=1 54=1 60=20140416-16:01:00.392 55=EUR/USD 10=176 ]
20140416-16:01:00.424412Z recv: [8=FIX.4.2 9=255 35=8 34=127 49=OANDA 52=20140416-16:01:00.412 56=winxton 1=3922748 6=1.38223 11=test_open_10857 14=1 17=T511860891 20=0 21=1 31=1.38223 32=1 37=8774387 38=1 39=2 40=1 54=1 55=EUR/USD 58=OANDA transaction ID(s): 511860891. 60=20140416-16:01:00 150=2 151=0 10=110 ]
20140416-16:01:00.424464Z Execution Report received
20140416-16:01:00.424777Z send: [8=FIX.4.2 9=105 35=H 34=127 49=winxton 52=20140416-16:01:00 56=OANDA 11=test_open_10857 54=1 55=EUR/USD 790=status_84221 10=101 ]
20140416-16:01:00.470720Z recv: [8=FIX.4.2 9=247 35=8 34=128 49=OANDA 52=20140416-16:01:00.456 56=winxton 1=3922748 6=1.38223 11=test_open_10857 14=1 17=0 20=3 21=1 37=8774387 38=1 39=2 40=1 54=1 55=EUR/USD 58=OANDA transaction ID(s): 511860891. 60=20140416-16:01:00 150=2 151=0 790=status_84221 10=139 ]
20140416-16:01:00.470782Z Execution Report received
20140416-16:01:00.471148Z send: [8=FIX.4.2 9=139 35=D 34=128 49=winxton 52=20140416-16:01:00 56=OANDA 1=3922748 11=test_close_77806 21=1 38=1 40=1 54=2 60=20140416-16:01:00.470 55=EUR/USD 10=028 ]
20140416-16:01:00.502528Z recv: [8=FIX.4.2 9=256 35=8 34=129 49=OANDA 52=20140416-16:01:00.487 56=winxton 1=3922748 6=1.38212 11=test_close_77806 14=1 17=T511860892 20=0 21=1 31=1.38212 32=1 37=8774388 38=1 39=2 40=1 54=2 55=EUR/USD 58=OANDA transaction ID(s): 511860892. 60=20140416-16:01:00 150=2 151=0 10=232 ]
20140416-16:01:00.502596Z Execution Report received
20140416-16:01:00.502942Z send: [8=FIX.4.2 9=116 35=V 34=129 49=winxton 52=20140416-16:01:00 56=OANDA 262=mdreq_82184 263=0 264=1 267=2 269=0 269=1 146=1 55=EUR/USD 10=139 ]
20140416-16:01:00.523498Z recv: [8=FIX.4.2 9=204 35=W 34=130 49=OANDA 52=20140416-16:01:00.513 56=winxton 55=EUR/USD 262=mdreq_82184 268=2 269=0 270=1.38212 271=10000000 272=20140416 273=16:00:57 269=1 270=1.38223 271=10000000 272=20140416 273=16:00:57 10=036 ]
20140416-16:01:00.523556Z mdr successful
20140416-16:01:00.523956Z send: [8=FIX.4.2 9=138 35=D 34=130 49=winxton 52=20140416-16:01:00 56=OANDA 1=3922748 11=test_open_61420 21=1 38=1 40=1 54=1 60=20140416-16:01:00.523 55=EUR/USD 10=159 ]
20140416-16:01:00.544752Z recv: [8=FIX.4.2 9=255 35=8 34=131 49=OANDA 52=20140416-16:01:00.535 56=winxton 1=3922748 6=1.38223 11=test_open_61420 14=1 17=T511860894 20=0 21=1 31=1.38223 32=1 37=8774389 38=1 39=2 40=1 54=1 55=EUR/USD 58=OANDA transaction ID(s): 511860894. 60=20140416-16:01:00 150=2 151=0 10=111 ]
20140416-16:01:00.544804Z Execution Report received
20140416-16:01:00.545125Z send: [8=FIX.4.2 9=105 35=H 34=131 49=winxton 52=20140416-16:01:00 56=OANDA 11=test_open_61420 54=1 55=EUR/USD 790=status_21614 10=085 ]
20140416-16:01:00.566027Z recv: [8=FIX.4.2 9=247 35=8 34=132 49=OANDA 52=20140416-16:01:00.556 56=winxton 1=3922748 6=1.38223 11=test_open_61420 14=1 17=0 20=3 21=1 37=8774389 38=1 39=2 40=1 54=1 55=EUR/USD 58=OANDA transaction ID(s): 511860894. 60=20140416-16:01:00 150=2 151=0 790=status_21614 10=129 ]
20140416-16:01:00.566083Z Execution Report received
20140416-16:01:00.566426Z send: [8=FIX.4.2 9=139 35=D 34=132 49=winxton 52=20140416-16:01:00 56=OANDA 1=3922748 11=test_close_27029 21=1 38=1 40=1 54=2 60=20140416-16:01:00.566 55=EUR/USD 10=021 ]
20140416-16:01:00.601436Z recv: [8=FIX.4.2 9=256 35=8 34=133 49=OANDA 52=20140416-16:01:00.589 56=winxton 1=3922748 6=1.38212 11=test_close_27029 14=1 17=T511860895 20=0 21=1 31=1.38212 32=1 37=8774390 38=1 39=2 40=1 54=2 55=EUR/USD 58=OANDA transaction ID(s): 511860895. 60=20140416-16:01:00 150=2 151=0 10=221 ]
20140416-16:01:00.601500Z Execution Report received
20140416-16:01:00.601832Z send: [8=FIX.4.2 9=116 35=V 34=133 49=winxton 52=20140416-16:01:00 56=OANDA 262=mdreq_24617 263=0 264=1 267=2 269=0 269=1 146=1 55=EUR/USD 10=131 ]
20140416-16:01:00.620335Z recv: [8=FIX.4.2 9=204 35=W 34=134 49=OANDA 52=20140416-16:01:00.611 56=winxton 55=EUR/USD 262=mdreq_24617 268=2 269=0 270=1.38212 271=10000000 272=20140416 273=16:00:57 269=1 270=1.38223 271=10000000 272=20140416 273=16:00:57 10=036 ]
20140416-16:01:00.620378Z mdr successful
20140416-16:01:00.620777Z send: [8=FIX.4.2 9=138 35=D 34=134 49=winxton 52=20140416-16:01:00 56=OANDA 1=3922748 11=test_open_22843 21=1 38=1 40=1 54=1 60=20140416-16:01:00.620 55=EUR/USD 10=167 ]
20140416-16:01:00.648269Z recv: [8=FIX.4.2 9=255 35=8 34=135 49=OANDA 52=20140416-16:01:00.639 56=winxton 1=3922748 6=1.38223 11=test_open_22843 14=1 17=T511860896 20=0 21=1 31=1.38223 32=1 37=8774391 38=1 39=2 40=1 54=1 55=EUR/USD 58=OANDA transaction ID(s): 511860896. 60=20140416-16:01:00 150=2 151=0 10=123 ]
20140416-16:01:00.648322Z Execution Report received
20140416-16:01:00.648628Z send: [8=FIX.4.2 9=105 35=H 34=135 49=winxton 52=20140416-16:01:00 56=OANDA 11=test_open_22843 54=1 55=EUR/USD 790=status_90897 10=114 ]
20140416-16:01:00.669590Z recv: [8=FIX.4.2 9=247 35=8 34=136 49=OANDA 52=20140416-16:01:00.660 56=winxton 1=3922748 6=1.38223 11=test_open_22843 14=1 17=0 20=3 21=1 37=8774391 38=1 39=2 40=1 54=1 55=EUR/USD 58=OANDA transaction ID(s): 511860896. 60=20140416-16:01:00 150=2 151=0 790=status_90897 10=149 ]
20140416-16:01:00.669643Z Execution Report received
20140416-16:01:00.669997Z send: [8=FIX.4.2 9=139 35=D 34=136 49=winxton 52=20140416-16:01:00 56=OANDA 1=3922748 11=test_close_35021 21=1 38=1 40=1 54=2 60=20140416-16:01:00.669 55=EUR/USD 10=020 ]
20140416-16:01:00.692767Z recv: [8=FIX.4.2 9=256 35=8 34=137 49=OANDA 52=20140416-16:01:00.683 56=winxton 1=3922748 6=1.38212 11=test_close_35021 14=1 17=T511860898 20=0 21=1 31=1.38212 32=1 37=8774392 38=1 39=2 40=1 54=2 55=EUR/USD 58=OANDA transaction ID(s): 511860898. 60=20140416-16:01:00 150=2 151=0 10=219 ]
20140416-16:01:00.692819Z Execution Report received
20140416-16:01:00.693134Z send: [8=FIX.4.2 9=116 35=V 34=137 49=winxton 52=20140416-16:01:00 56=OANDA 262=mdreq_44748 263=0 264=1 267=2 269=0 269=1 146=1 55=EUR/USD 10=142 ]
20140416-16:01:00.710374Z recv: [8=FIX.4.2 9=204 35=W 34=138 49=OANDA 52=20140416-16:01:00.701 56=winxton 55=EUR/USD 262=mdreq_44748 268=2 269=0 270=1.38212 271=10000000 272=20140416 273=16:00:57 269=1 270=1.38223 271=10000000 272=20140416 273=16:00:57 10=047 ]
20140416-16:01:00.710415Z mdr successful
20140416-16:01:00.710789Z send: [8=FIX.4.2 9=138 35=D 34=138 49=winxton 52=20140416-16:01:00 56=OANDA 1=3922748 11=test_open_99717 21=1 38=1 40=1 54=1 60=20140416-16:01:00.710 55=EUR/USD 10=185 ]
20140416-16:01:00.734550Z recv: [8=FIX.4.2 9=255 35=8 34=139 49=OANDA 52=20140416-16:01:00.724 56=winxton 1=3922748 6=1.38223 11=test_open_99717 14=1 17=T511860899 20=0 21=1 31=1.38223 32=1 37=8774393 38=1 39=2 40=1 54=1 55=EUR/USD 58=OANDA transaction ID(s): 511860899. 60=20140416-16:01:00 150=2 151=0 10=144 ]
20140416-16:01:00.734601Z Execution Report received
20140416-16:01:00.734897Z send: [8=FIX.4.2 9=105 35=H 34=139 49=winxton 52=20140416-16:01:00 56=OANDA 11=test_open_99717 54=1 55=EUR/USD 790=status_65547 10=126 ]
20140416-16:01:00.756602Z recv: [8=FIX.4.2 9=247 35=8 34=140 49=OANDA 52=20140416-16:01:00.744 56=winxton 1=3922748 6=1.38223 11=test_open_99717 14=1 17=0 20=3 21=1 37=8774393 38=1 39=2 40=1 54=1 55=EUR/USD 58=OANDA transaction ID(s): 511860899. 60=20140416-16:01:00 150=2 151=0 790=status_65547 10=160 ]
20140416-16:01:00.756655Z Execution Report received
20140416-16:01:00.757008Z send: [8=FIX.4.2 9=139 35=D 34=140 49=winxton 52=20140416-16:01:00 56=OANDA 1=3922748 11=test_close_39887 21=1 38=1 40=1 54=2 60=20140416-16:01:00.756 55=EUR/USD 10=036 ]
20140416-16:01:00.790409Z recv: [8=FIX.4.2 9=256 35=8 34=141 49=OANDA 52=20140416-16:01:00.779 56=winxton 1=3922748 6=1.38212 11=test_close_39887 14=1 17=T511860900 20=0 21=1 31=1.38212 32=1 37=8774394 38=1 39=2 40=1 54=2 55=EUR/USD 58=OANDA transaction ID(s): 511860900. 60=20140416-16:01:00 150=2 151=0 10=214 ]
20140416-16:01:00.790461Z Execution Report received
20140416-16:01:00.790776Z send: [8=FIX.4.2 9=116 35=V 34=141 49=winxton 52=20140416-16:01:00 56=OANDA 262=mdreq_91672 263=0 264=1 267=2 269=0 269=1 146=1 55=EUR/USD 10=135 ]
20140416-16:01:00.811219Z recv: [8=FIX.4.2 9=204 35=W 34=142 49=OANDA 52=20140416-16:01:00.800 56=winxton 55=EUR/USD 262=mdreq_91672 268=2 269=0 270=1.38212 271=10000000 272=20140416 273=16:00:57 269=1 270=1.38223 271=10000000 272=20140416 273=16:00:57 10=040 ]
20140416-16:01:00.811260Z mdr successful
20140416-16:01:00.811636Z send: [8=FIX.4.2 9=138 35=D 34=142 49=winxton 52=20140416-16:01:00 56=OANDA 1=3922748 11=test_open_40194 21=1 38=1 40=1 54=1 60=20140416-16:01:00.811 55=EUR/USD 10=167 ]
20140416-16:01:00.840774Z recv: [8=FIX.4.2 9=255 35=8 34=143 49=OANDA 52=20140416-16:01:00.832 56=winxton 1=3922748 6=1.38223 11=test_open_40194 14=1 17=T511860901 20=0 21=1 31=1.38223 32=1 37=8774395 38=1 39=2 40=1 54=1 55=EUR/USD 58=OANDA transaction ID(s): 511860901. 60=20140416-16:01:00 150=2 151=0 10=094 ]
20140416-16:01:00.840826Z Execution Report received
20140416-16:01:00.841122Z send: [8=FIX.4.2 9=105 35=H 34=143 49=winxton 52=20140416-16:01:00 56=OANDA 11=test_open_40194 54=1 55=EUR/USD 790=status_60057 10=097 ]
20140416-16:01:00.860671Z recv: [8=FIX.4.2 9=247 35=8 34=144 49=OANDA 52=20140416-16:01:00.850 56=winxton 1=3922748 6=1.38223 11=test_open_40194 14=1 17=0 20=3 21=1 37=8774395 38=1 39=2 40=1 54=1 55=EUR/USD 58=OANDA transaction ID(s): 511860901. 60=20140416-16:01:00 150=2 151=0 790=status_60057 10=124 ]
20140416-16:01:00.860722Z Execution Report received
20140416-16:01:00.861075Z send: [8=FIX.4.2 9=139 35=D 34=144 49=winxton 52=20140416-16:01:00 56=OANDA 1=3922748 11=test_close_20737 21=1 38=1 40=1 54=2 60=20140416-16:01:00.860 55=EUR/USD 10=020 ]
20140416-16:01:00.888075Z recv: [8=FIX.4.2 9=256 35=8 34=145 49=OANDA 52=20140416-16:01:00.876 56=winxton 1=3922748 6=1.38212 11=test_close_20737 14=1 17=T511860902 20=0 21=1 31=1.38212 32=1 37=8774396 38=1 39=2 40=1 54=2 55=EUR/USD 58=OANDA transaction ID(s): 511860902. 60=20140416-16:01:00 150=2 151=0 10=206 ]
20140416-16:01:00.888127Z Execution Report received
20140416-16:01:00.888440Z send: [8=FIX.4.2 9=116 35=V 34=145 49=winxton 52=20140416-16:01:00 56=OANDA 262=mdreq_96182 263=0 264=1 267=2 269=0 269=1 146=1 55=EUR/USD 10=140 ]
20140416-16:01:00.909363Z recv: [8=FIX.4.2 9=204 35=W 34=146 49=OANDA 52=20140416-16:01:00.900 56=winxton 55=EUR/USD 262=mdreq_96182 268=2 269=0 270=1.38212 271=10000000 272=20140416 273=16:00:57 269=1 270=1.38223 271=10000000 272=20140416 273=16:00:57 10=046 ]
20140416-16:01:00.909404Z mdr successful
20140416-16:01:00.909777Z send: [8=FIX.4.2 9=138 35=D 34=146 49=winxton 52=20140416-16:01:00 56=OANDA 1=3922748 11=test_open_26817 21=1 38=1 40=1 54=1 60=20140416-16:01:00.909 55=EUR/USD 10=185 ]
20140416-16:01:00.933686Z recv: [8=FIX.4.2 9=255 35=8 34=147 49=OANDA 52=20140416-16:01:00.923 56=winxton 1=3922748 6=1.38223 11=test_open_26817 14=1 17=T511860904 20=0 21=1 31=1.38223 32=1 37=8774397 38=1 39=2 40=1 54=1 55=EUR/USD 58=OANDA transaction ID(s): 511860904. 60=20140416-16:01:00 150=2 151=0 10=113 ]
20140416-16:01:00.933737Z Execution Report received
20140416-16:01:00.934030Z send: [8=FIX.4.2 9=105 35=H 34=147 49=winxton 52=20140416-16:01:00 56=OANDA 11=test_open_26817 54=1 55=EUR/USD 790=status_42627 10=110 ]
20140416-16:01:00.953195Z recv: [8=FIX.4.2 9=247 35=8 34=148 49=OANDA 52=20140416-16:01:00.943 56=winxton 1=3922748 6=1.38223 11=test_open_26817 14=1 17=0 20=3 21=1 37=8774397 38=1 39=2 40=1 54=1 55=EUR/USD 58=OANDA transaction ID(s): 511860904. 60=20140416-16:01:00 150=2 151=0 790=status_42627 10=145 ]
20140416-16:01:00.953247Z Execution Report received
20140416-16:01:00.953599Z send: [8=FIX.4.2 9=139 35=D 34=148 49=winxton 52=20140416-16:01:00 56=OANDA 1=3922748 11=test_close_11862 21=1 38=1 40=1 54=2 60=20140416-16:01:00.953 55=EUR/USD 10=026 ]
20140416-16:01:00.976164Z recv: [8=FIX.4.2 9=256 35=8 34=149 49=OANDA 52=20140416-16:01:00.967 56=winxton 1=3922748 6=1.38212 11=test_close_11862 14=1 17=T511860905 20=0 21=1 31=1.38212 32=1 37=8774398 38=1 39=2 40=1 54=2 55=EUR/USD 58=OANDA transaction ID(s): 511860905. 60=20140416-16:01:00 150=2 151=0 10=218 ]
20140416-16:01:00.976223Z Execution Report received
20140416-16:01:00.976546Z send: [8=FIX.4.2 9=116 35=V 34=149 49=winxton 52=20140416-16:01:00 56=OANDA 262=mdreq_38478 263=0 264=1 267=2 269=0 269=1 146=1 55=EUR/USD 10=148 ]
20140416-16:01:00.993335Z recv: [8=FIX.4.2 9=204 35=W 34=150 49=OANDA 52=20140416-16:01:00.983 56=winxton 55=EUR/USD 262=mdreq_38478 268=2 269=0 270=1.38212 271=10000000 272=20140416 273=16:00:57 269=1 270=1.38223 271=10000000 272=20140416 273=16:00:57 10=056 ]
20140416-16:01:00.993376Z mdr successful
20140416-16:01:00.993754Z send: [8=FIX.4.2 9=138 35=D 34=150 49=winxton 52=20140416-16:01:00 56=OANDA 1=3922748 11=test_open_81196 21=1 38=1 40=1 54=1 60=20140416-16:01:00.993 55=EUR/USD 10=184 ]
20140416-16:01:01.016627Z recv: [8=FIX.4.2 9=255 35=8 34=151 49=OANDA 52=20140416-16:01:01.008 56=winxton 1=3922748 6=1.38223 11=test_open_81196 14=1 17=T511860906 20=0 21=1 31=1.38223 32=1 37=8774399 38=1 39=2 40=1 54=1 55=EUR/USD 58=OANDA transaction ID(s): 511860906. 60=20140416-16:01:01 150=2 151=0 10=111 ]
20140416-16:01:01.016690Z Execution Report received
20140416-16:01:01.016998Z send: [8=FIX.4.2 9=105 35=H 34=151 49=winxton 52=20140416-16:01:01 56=OANDA 11=test_open_81196 54=1 55=EUR/USD 790=status_86385 10=116 ]
20140416-16:01:01.044120Z recv: [8=FIX.4.2 9=247 35=8 34=152 49=OANDA 52=20140416-16:01:01.034 56=winxton 1=3922748 6=1.38223 11=test_open_81196 14=1 17=0 20=3 21=1 37=8774399 38=1 39=2 40=1 54=1 55=EUR/USD 58=OANDA transaction ID(s): 511860906. 60=20140416-16:01:01 150=2 151=0 790=status_86385 10=147 ]
20140416-16:01:01.044172Z Execution Report received
20140416-16:01:01.044526Z send: [8=FIX.4.2 9=139 35=D 34=152 49=winxton 52=20140416-16:01:01 56=OANDA 1=3922748 11=test_close_28389 21=1 38=1 40=1 54=2 60=20140416-16:01:01.044 55=EUR/USD 10=026 ]
20140416-16:01:01.067719Z recv: [8=FIX.4.2 9=256 35=8 34=153 49=OANDA 52=20140416-16:01:01.058 56=winxton 1=3922748 6=1.38212 11=test_close_28389 14=1 17=T511860908 20=0 21=1 31=1.38212 32=1 37=8774400 38=1 39=2 40=1 54=2 55=EUR/USD 58=OANDA transaction ID(s): 511860908. 60=20140416-16:01:01 150=2 151=0 10=208 ]
20140416-16:01:01.067780Z Execution Report received
20140416-16:01:01.068107Z send: [8=FIX.4.2 9=116 35=V 34=153 49=winxton 52=20140416-16:01:01 56=OANDA 262=mdreq_18971 263=0 264=1 267=2 269=0 269=1 146=1 55=EUR/USD 10=140 ]
20140416-16:01:01.084807Z recv: [8=FIX.4.2 9=204 35=W 34=154 49=OANDA 52=20140416-16:01:01.075 56=winxton 55=EUR/USD 262=mdreq_18971 268=2 269=0 270=1.38212 271=10000000 272=20140416 273=16:00:57 269=1 270=1.38223 271=10000000 272=20140416 273=16:00:57 10=049 ]
20140416-16:01:01.084854Z mdr successful
20140416-16:01:01.085240Z send: [8=FIX.4.2 9=138 35=D 34=154 49=winxton 52=20140416-16:01:01 56=OANDA 1=3922748 11=test_open_24710 21=1 38=1 40=1 54=1 60=20140416-16:01:01.084 55=EUR/USD 10=170 ]
20140416-16:01:01.112455Z recv: [8=FIX.4.2 9=255 35=8 34=155 49=OANDA 52=20140416-16:01:01.103 56=winxton 1=3922748 6=1.38223 11=test_open_24710 14=1 17=T511860909 20=0 21=1 31=1.38223 32=1 37=8774401 38=1 39=2 40=1 54=1 55=EUR/USD 58=OANDA transaction ID(s): 511860909. 60=20140416-16:01:01 150=2 151=0 10=090 ]
20140416-16:01:01.112526Z Execution Report received
20140416-16:01:01.112879Z send: [8=FIX.4.2 9=105 35=H 34=155 49=winxton 52=20140416-16:01:01 56=OANDA 11=test_open_24710 54=1 55=EUR/USD 790=status_43722 10=097 ]
20140416-16:01:01.138084Z recv: [8=FIX.4.2 9=247 35=8 34=156 49=OANDA 52=20140416-16:01:01.124 56=winxton 1=3922748 6=1.38223 11=test_open_24710 14=1 17=0 20=3 21=1 37=8774401 38=1 39=2 40=1 54=1 55=EUR/USD 58=OANDA transaction ID(s): 511860909. 60=20140416-16:01:01 150=2 151=0 790=status_43722 10=115 ]
20140416-16:01:01.138138Z Execution Report received
20140416-16:01:01.138496Z send: [8=FIX.4.2 9=139 35=D 34=156 49=winxton 52=20140416-16:01:01 56=OANDA 1=3922748 11=test_close_68468 21=1 38=1 40=1 54=2 60=20140416-16:01:01.138 55=EUR/USD 10=036 ]
20140416-16:01:01.173881Z recv: [8=FIX.4.2 9=256 35=8 34=157 49=OANDA 52=20140416-16:01:01.154 56=winxton 1=3922748 6=1.38212 11=test_close_68468 14=1 17=T511860911 20=0 21=1 31=1.38212 32=1 37=8774402 38=1 39=2 40=1 54=2 55=EUR/USD 58=OANDA transaction ID(s): 511860911. 60=20140416-16:01:01 150=2 151=0 10=201 ]
20140416-16:01:01.173937Z Execution Report received
20140416-16:01:01.174259Z send: [8=FIX.4.2 9=116 35=V 34=157 49=winxton 52=20140416-16:01:01 56=OANDA 262=mdreq_84585 263=0 264=1 267=2 269=0 269=1 146=1 55=EUR/USD 10=148 ]
20140416-16:01:01.413424Z recv: [8=FIX.4.2 9=204 35=W 34=158 49=OANDA 52=20140416-16:01:01.404 56=winxton 55=EUR/USD 262=mdreq_84585 268=2 269=0 270=1.38212 271=10000000 272=20140416 273=16:00:57 269=1 270=1.38223 271=10000000 272=20140416 273=16:00:57 10=053 ]
20140416-16:01:01.413477Z mdr successful
20140416-16:01:01.413870Z send: [8=FIX.4.2 9=138 35=D 34=158 49=winxton 52=20140416-16:01:01 56=OANDA 1=3922748 11=test_open_27747 21=1 38=1 40=1 54=1 60=20140416-16:01:01.413 55=EUR/USD 10=183 ]
20140416-16:01:01.436314Z recv: [8=FIX.4.2 9=255 35=8 34=159 49=OANDA 52=20140416-16:01:01.426 56=winxton 1=3922748 6=1.38223 11=test_open_27747 14=1 17=T511860913 20=0 21=1 31=1.38223 32=1 37=8774403 38=1 39=2 40=1 54=1 55=EUR/USD 58=OANDA transaction ID(s): 511860913. 60=20140416-16:01:01 150=2 151=0 10=107 ]
20140416-16:01:01.436366Z Execution Report received
20140416-16:01:01.436672Z send: [8=FIX.4.2 9=105 35=H 34=159 49=winxton 52=20140416-16:01:01 56=OANDA 11=test_open_27747 54=1 55=EUR/USD 790=status_11310 10=102 ]
20140416-16:01:01.456153Z recv: [8=FIX.4.2 9=247 35=8 34=160 49=OANDA 52=20140416-16:01:01.447 56=winxton 1=3922748 6=1.38223 11=test_open_27747 14=1 17=0 20=3 21=1 37=8774403 38=1 39=2 40=1 54=1 55=EUR/USD 58=OANDA transaction ID(s): 511860913. 60=20140416-16:01:01 150=2 151=0 790=status_11310 10=116 ]
20140416-16:01:01.456207Z Execution Report received
20140416-16:01:01.456562Z send: [8=FIX.4.2 9=139 35=D 34=160 49=winxton 52=20140416-16:01:01 56=OANDA 1=3922748 11=test_close_40780 21=1 38=1 40=1 54=2 60=20140416-16:01:01.456 55=EUR/USD 10=021 ]
20140416-16:01:01.479201Z recv: [8=FIX.4.2 9=256 35=8 34=161 49=OANDA 52=20140416-16:01:01.469 56=winxton 1=3922748 6=1.38212 11=test_close_40780 14=1 17=T511860914 20=0 21=1 31=1.38212 32=1 37=8774404 38=1 39=2 40=1 54=2 55=EUR/USD 58=OANDA transaction ID(s): 511860914. 60=20140416-16:01:01 150=2 151=0 10=200 ]
20140416-16:01:01.479286Z Execution Report received
20140416-16:01:01.479853Z send: [8=FIX.4.2 9=116 35=V 34=161 49=winxton 52=20140416-16:01:01 56=OANDA 262=mdreq_88278 263=0 264=1 267=2 269=0 269=1 146=1 55=EUR/USD 10=146 ]
20140416-16:01:01.499472Z recv: [8=FIX.4.2 9=204 35=W 34=162 49=OANDA 52=20140416-16:01:01.487 56=winxton 55=EUR/USD 262=mdreq_88278 268=2 269=0 270=1.38212 271=10000000 272=20140416 273=16:00:57 269=1 270=1.38223 271=10000000 272=20140416 273=16:00:57 10=062 ]
20140416-16:01:01.499524Z mdr successful
20140416-16:01:01.499915Z send: [8=FIX.4.2 9=138 35=D 34=162 49=winxton 52=20140416-16:01:01 56=OANDA 1=3922748 11=test_open_57752 21=1 38=1 40=1 54=1 60=20140416-16:01:01.499 55=EUR/USD 10=191 ]
20140416-16:01:01.536406Z recv: [8=FIX.4.2 9=255 35=8 34=163 49=OANDA 52=20140416-16:01:01.527 56=winxton 1=3922748 6=1.38223 11=test_open_57752 14=1 17=T511860915 20=0 21=1 31=1.38223 32=1 37=8774405 38=1 39=2 40=1 54=1 55=EUR/USD 58=OANDA transaction ID(s): 511860915. 60=20140416-16:01:01 150=2 151=0 10=109 ]
20140416-16:01:01.536471Z Execution Report received
20140416-16:01:01.536803Z send: [8=FIX.4.2 9=105 35=H 34=163 49=winxton 52=20140416-16:01:01 56=OANDA 11=test_open_57752 54=1 55=EUR/USD 790=status_64360 10=109 ]
20140416-16:01:01.560224Z recv: [8=FIX.4.2 9=247 35=8 34=164 49=OANDA 52=20140416-16:01:01.546 56=winxton 1=3922748 6=1.38223 11=test_open_57752 14=1 17=0 20=3 21=1 37=8774405 38=1 39=2 40=1 54=1 55=EUR/USD 58=OANDA transaction ID(s): 511860915. 60=20140416-16:01:01 150=2 151=0 790=status_64360 10=136 ]
20140416-16:01:01.560276Z Execution Report received
20140416-16:01:01.560474Z send: [8=FIX.4.2 9=139 35=D 34=164 49=winxton 52=20140416-16:01:01 56=OANDA 1=3922748 11=test_close_68521 21=1 38=1 40=1 54=2 60=20140416-16:01:01.560 55=EUR/USD 10=024 ]
20140416-16:01:01.605074Z recv: [8=FIX.4.2 9=256 35=8 34=165 49=OANDA 52=20140416-16:01:01.583 56=winxton 1=3922748 6=1.38212 11=test_close_68521 14=1 17=T511860916 20=0 21=1 31=1.38212 32=1 37=8774406 38=1 39=2 40=1 54=2 55=EUR/USD 58=OANDA transaction ID(s): 511860916. 60=20140416-16:01:01 150=2 151=0 10=210 ]
20140416-16:01:01.605138Z Execution Report received
20140416-16:01:01.605469Z send: [8=FIX.4.2 9=116 35=V 34=165 49=winxton 52=20140416-16:01:01 56=OANDA 262=mdreq_91609 263=0 264=1 267=2 269=0 269=1 146=1 55=EUR/USD 10=142 ]
20140416-16:01:01.632590Z recv: [8=FIX.4.2 9=204 35=W 34=166 49=OANDA 52=20140416-16:01:01.618 56=winxton 55=EUR/USD 262=mdreq_91609 268=2 269=0 270=1.38212 271=10000000 272=20140416 273=16:00:57 269=1 270=1.38223 271=10000000 272=20140416 273=16:00:57 10=054 ]
20140416-16:01:01.632635Z mdr successful
20140416-16:01:01.633016Z send: [8=FIX.4.2 9=138 35=D 34=166 49=winxton 52=20140416-16:01:01 56=OANDA 1=3922748 11=test_open_17182 21=1 38=1 40=1 54=1 60=20140416-16:01:01.632 55=EUR/USD 10=177 ]
20140416-16:01:01.673863Z recv: [8=FIX.4.2 9=255 35=8 34=167 49=OANDA 52=20140416-16:01:01.659 56=winxton 1=3922748 6=1.38223 11=test_open_17182 14=1 17=T511860918 20=0 21=1 31=1.38223 32=1 37=8774407 38=1 39=2 40=1 54=1 55=EUR/USD 58=OANDA transaction ID(s): 511860918. 60=20140416-16:01:01 150=2 151=0 10=120 ]
20140416-16:01:01.673919Z Execution Report received
20140416-16:01:01.674227Z send: [8=FIX.4.2 9=105 35=H 34=167 49=winxton 52=20140416-16:01:01 56=OANDA 11=test_open_17182 54=1 55=EUR/USD 790=status_25362 10=105 ]
20140416-16:01:01.700184Z recv: [8=FIX.4.2 9=247 35=8 34=168 49=OANDA 52=20140416-16:01:01.691 56=winxton 1=3922748 6=1.38223 11=test_open_17182 14=1 17=0 20=3 21=1 37=8774407 38=1 39=2 40=1 54=1 55=EUR/USD 58=OANDA transaction ID(s): 511860918. 60=20140416-16:01:01 150=2 151=0 790=status_25362 10=138 ]
20140416-16:01:01.700236Z Execution Report received
20140416-16:01:01.700604Z send: [8=FIX.4.2 9=139 35=D 34=168 49=winxton 52=20140416-16:01:01 56=OANDA 1=3922748 11=test_close_59695 21=1 38=1 40=1 54=2 60=20140416-16:01:01.700 55=EUR/USD 10=036 ]
20140416-16:01:01.729515Z recv: [8=FIX.4.2 9=256 35=8 34=169 49=OANDA 52=20140416-16:01:01.714 56=winxton 1=3922748 6=1.38212 11=test_close_59695 14=1 17=T511860919 20=0 21=1 31=1.38212 32=1 37=8774408 38=1 39=2 40=1 54=2 55=EUR/USD 58=OANDA transaction ID(s): 511860919. 60=20140416-16:01:01 150=2 151=0 10=230 ]
20140416-16:01:01.729567Z Execution Report received
20140416-16:01:01.729881Z send: [8=FIX.4.2 9=116 35=V 34=169 49=winxton 52=20140416-16:01:01 56=OANDA 262=mdreq_48323 263=0 264=1 267=2 269=0 269=1 146=1 55=EUR/USD 10=141 ]
20140416-16:01:01.755652Z recv: [8=FIX.4.2 9=204 35=W 34=170 49=OANDA 52=20140416-16:01:01.745 56=winxton 55=EUR/USD 262=mdreq_48323 268=2 269=0 270=1.38212 271=10000000 272=20140416 273=16:00:57 269=1 270=1.38223 271=10000000 272=20140416 273=16:00:57 10=045 ]
20140416-16:01:01.755693Z mdr successful
20140416-16:01:01.756069Z send: [8=FIX.4.2 9=138 35=D 34=170 49=winxton 52=20140416-16:01:01 56=OANDA 1=3922748 11=test_open_48154 21=1 38=1 40=1 54=1 60=20140416-16:01:01.755 55=EUR/USD 10=181 ]
20140416-16:01:01.788637Z recv: [8=FIX.4.2 9=255 35=8 34=171 49=OANDA 52=20140416-16:01:01.777 56=winxton 1=3922748 6=1.38223 11=test_open_48154 14=1 17=T511860920 20=0 21=1 31=1.38223 32=1 37=8774409 38=1 39=2 40=1 54=1 55=EUR/USD 58=OANDA transaction ID(s): 511860920. 60=20140416-16:01:01 150=2 151=0 10=107 ]
20140416-16:01:01.788699Z Execution Report received
20140416-16:01:01.789008Z send: [8=FIX.4.2 9=105 35=H 34=171 49=winxton 52=20140416-16:01:01 56=OANDA 11=test_open_48154 54=1 55=EUR/USD 790=status_89686 10=122 ]
20140416-16:01:01.807479Z recv: [8=FIX.4.2 9=247 35=8 34=172 49=OANDA 52=20140416-16:01:01.798 56=winxton 1=3922748 6=1.38223 11=test_open_48154 14=1 17=0 20=3 21=1 37=8774409 38=1 39=2 40=1 54=1 55=EUR/USD 58=OANDA transaction ID(s): 511860920. 60=20140416-16:01:01 150=2 151=0 790=status_89686 10=158 ]
20140416-16:01:01.807532Z Execution Report received
20140416-16:01:01.807887Z send: [8=FIX.4.2 9=139 35=D 34=172 49=winxton 52=20140416-16:01:01 56=OANDA 1=3922748 11=test_close_37217 21=1 38=1 40=1 54=2 60=20140416-16:01:01.807 55=EUR/USD 10=025 ]
20140416-16:01:01.832572Z recv: [8=FIX.4.2 9=256 35=8 34=173 49=OANDA 52=20140416-16:01:01.822 56=winxton 1=3922748 6=1.38212 11=test_close_37217 14=1 17=T511860921 20=0 21=1 31=1.38212 32=1 37=8774410 38=1 39=2 40=1 54=2 55=EUR/USD 58=OANDA transaction ID(s): 511860921. 60=20140416-16:01:01 150=2 151=0 10=190 ]
20140416-16:01:01.832636Z Execution Report received
20140416-16:01:01.832951Z send: [8=FIX.4.2 9=116 35=V 34=173 49=winxton 52=20140416-16:01:01 56=OANDA 262=mdreq_85535 263=0 264=1 267=2 269=0 269=1 146=1 55=EUR/USD 10=142 ]
20140416-16:01:01.852000Z recv: [8=FIX.4.2 9=204 35=W 34=174 49=OANDA 52=20140416-16:01:01.840 56=winxton 55=EUR/USD 262=mdreq_85535 268=2 269=0 270=1.38212 271=10000000 272=20140416 273=16:00:57 269=1 270=1.38223 271=10000000 272=20140416 273=16:00:57 10=051 ]
20140416-16:01:01.852041Z mdr successful
20140416-16:01:01.852416Z send: [8=FIX.4.2 9=138 35=D 34=174 49=winxton 52=20140416-16:01:01 56=OANDA 1=3922748 11=test_open_25238 21=1 38=1 40=1 54=1 60=20140416-16:01:01.852 55=EUR/USD 10=181 ]
20140416-16:01:01.886669Z recv: [8=FIX.4.2 9=255 35=8 34=175 49=OANDA 52=20140416-16:01:01.870 56=winxton 1=3922748 6=1.38223 11=test_open_25238 14=1 17=T511860922 20=0 21=1 31=1.38223 32=1 37=8774411 38=1 39=2 40=1 54=1 55=EUR/USD 58=OANDA transaction ID(s): 511860922. 60=20140416-16:01:01 150=2 151=0 10=100 ]
20140416-16:01:01.886721Z Execution Report received
20140416-16:01:01.887020Z send: [8=FIX.4.2 9=105 35=H 34=175 49=winxton 52=20140416-16:01:01 56=OANDA 11=test_open_25238 54=1 55=EUR/USD 790=status_22264 10=103 ]
20140416-16:01:01.909824Z recv: [8=FIX.4.2 9=247 35=8 34=176 49=OANDA 52=20140416-16:01:01.900 56=winxton 1=3922748 6=1.38223 11=test_open_25238 14=1 17=0 20=3 21=1 37=8774411 38=1 39=2 40=1 54=1 55=EUR/USD 58=OANDA transaction ID(s): 511860922. 60=20140416-16:01:01 150=2 151=0 790=status_22264 10=119 ]
20140416-16:01:01.909875Z Execution Report received
20140416-16:01:01.910237Z send: [8=FIX.4.2 9=139 35=D 34=176 49=winxton 52=20140416-16:01:01 56=OANDA 1=3922748 11=test_close_44717 21=1 38=1 40=1 54=2 60=20140416-16:01:01.909 55=EUR/USD 10=035 ]
20140416-16:01:01.933870Z recv: [8=FIX.4.2 9=256 35=8 34=177 49=OANDA 52=20140416-16:01:01.924 56=winxton 1=3922748 6=1.38212 11=test_close_44717 14=1 17=T511860923 20=0 21=1 31=1.38212 32=1 37=8774412 38=1 39=2 40=1 54=2 55=EUR/USD 58=OANDA transaction ID(s): 511860923. 60=20140416-16:01:01 150=2 151=0 10=206 ]
20140416-16:01:01.933921Z Execution Report received
20140416-16:01:01.934234Z send: [8=FIX.4.2 9=116 35=V 34=177 49=winxton 52=20140416-16:01:01 56=OANDA 262=mdreq_38616 263=0 264=1 267=2 269=0 269=1 146=1 55=EUR/USD 10=144 ]
20140416-16:01:01.955884Z recv: [8=FIX.4.2 9=204 35=W 34=178 49=OANDA 52=20140416-16:01:01.941 56=winxton 55=EUR/USD 262=mdreq_38616 268=2 269=0 270=1.38212 271=10000000 272=20140416 273=16:00:57 269=1 270=1.38223 271=10000000 272=20140416 273=16:00:57 10=055 ]
20140416-16:01:01.955925Z mdr successful
20140416-16:01:01.956303Z send: [8=FIX.4.2 9=138 35=D 34=178 49=winxton 52=20140416-16:01:01 56=OANDA 1=3922748 11=test_open_23387 21=1 38=1 40=1 54=1 60=20140416-16:01:01.955 55=EUR/USD 10=192 ]
20140416-16:01:01.987064Z recv: [8=FIX.4.2 9=255 35=8 34=179 49=OANDA 52=20140416-16:01:01.972 56=winxton 1=3922748 6=1.38223 11=test_open_23387 14=1 17=T511860924 20=0 21=1 31=1.38223 32=1 37=8774413 38=1 39=2 40=1 54=1 55=EUR/USD 58=OANDA transaction ID(s): 511860924. 60=20140416-16:01:01 150=2 151=0 10=116 ]
20140416-16:01:01.987118Z Execution Report received
20140416-16:01:01.987419Z send: [8=FIX.4.2 9=105 35=H 34=179 49=winxton 52=20140416-16:01:01 56=OANDA 11=test_open_23387 54=1 55=EUR/USD 790=status_50281 10=110 ]
20140416-16:01:02.011508Z recv: [8=FIX.4.2 9=247 35=8 34=180 49=OANDA 52=20140416-16:01:02.002 56=winxton 1=3922748 6=1.38223 11=test_open_23387 14=1 17=0 20=3 21=1 37=8774413 38=1 39=2 40=1 54=1 55=EUR/USD 58=OANDA transaction ID(s): 511860924. 60=20140416-16:01:01 150=2 151=0 790=status_50281 10=115 ]
20140416-16:01:02.011578Z Execution Report received
20140416-16:01:02.011952Z send: [8=FIX.4.2 9=139 35=D 34=180 49=winxton 52=20140416-16:01:02 56=OANDA 1=3922748 11=test_close_67934 21=1 38=1 40=1 54=2 60=20140416-16:01:02.011 55=EUR/USD 10=022 ]
20140416-16:01:02.034114Z recv: [8=FIX.4.2 9=256 35=8 34=181 49=OANDA 52=20140416-16:01:02.025 56=winxton 1=3922748 6=1.38212 11=test_close_67934 14=1 17=T511860926 20=0 21=1 31=1.38212 32=1 37=8774414 38=1 39=2 40=1 54=2 55=EUR/USD 58=OANDA transaction ID(s): 511860926. 60=20140416-16:01:02 150=2 151=0 10=209 ]
20140416-16:01:02.034166Z Execution Report received
20140416-16:01:02.034485Z send: [8=FIX.4.2 9=116 35=V 34=181 49=winxton 52=20140416-16:01:02 56=OANDA 262=mdreq_17208 263=0 264=1 267=2 269=0 269=1 146=1 55=EUR/USD 10=134 ]
20140416-16:01:02.055940Z recv: [8=FIX.4.2 9=204 35=W 34=182 49=OANDA 52=20140416-16:01:02.042 56=winxton 55=EUR/USD 262=mdreq_17208 268=2 269=0 270=1.38212 271=10000000 272=20140416 273=16:00:57 269=1 270=1.38223 271=10000000 272=20140416 273=16:00:57 10=037 ]
20140416-16:01:02.055989Z mdr successful
20140416-16:01:02.056377Z send: [8=FIX.4.2 9=138 35=D 34=182 49=winxton 52=20140416-16:01:02 56=OANDA 1=3922748 11=test_open_52874 21=1 38=1 40=1 54=1 60=20140416-16:01:02.056 55=EUR/USD 10=184 ]
20140416-16:01:02.086594Z recv: [8=FIX.4.2 9=255 35=8 34=183 49=OANDA 52=20140416-16:01:02.073 56=winxton 1=3922748 6=1.38223 11=test_open_52874 14=1 17=T511860928 20=0 21=1 31=1.38223 32=1 37=8774415 38=1 39=2 40=1 54=1 55=EUR/USD 58=OANDA transaction ID(s): 511860928. 60=20140416-16:01:02 150=2 151=0 10=118 ]
20140416-16:01:02.086658Z Execution Report received
20140416-16:01:02.086966Z send: [8=FIX.4.2 9=105 35=H 34=183 49=winxton 52=20140416-16:01:02 56=OANDA 11=test_open_52874 54=1 55=EUR/USD 790=status_46936 10=121 ]
20140416-16:01:02.107176Z recv: [8=FIX.4.2 9=247 35=8 34=184 49=OANDA 52=20140416-16:01:02.097 56=winxton 1=3922748 6=1.38223 11=test_open_52874 14=1 17=0 20=3 21=1 37=8774415 38=1 39=2 40=1 54=1 55=EUR/USD 58=OANDA transaction ID(s): 511860928. 60=20140416-16:01:02 150=2 151=0 790=status_46936 10=155 ]
20140416-16:01:02.107219Z Execution Report received
20140416-16:01:02.107395Z send: [8=FIX.4.2 9=139 35=D 34=184 49=winxton 52=20140416-16:01:02 56=OANDA 1=3922748 11=test_close_38357 21=1 38=1 40=1 54=2 60=20140416-16:01:02.107 55=EUR/USD 10=029 ]
20140416-16:01:02.130643Z recv: [8=FIX.4.2 9=256 35=8 34=185 49=OANDA 52=20140416-16:01:02.120 56=winxton 1=3922748 6=1.38212 11=test_close_38357 14=1 17=T511860929 20=0 21=1 31=1.38212 32=1 37=8774416 38=1 39=2 40=1 54=2 55=EUR/USD 58=OANDA transaction ID(s): 511860929. 60=20140416-16:01:02 150=2 151=0 10=214 ]
20140416-16:01:02.130717Z Execution Report received
20140416-16:01:02.131065Z send: [8=FIX.4.2 9=116 35=V 34=185 49=winxton 52=20140416-16:01:02 56=OANDA 262=mdreq_40670 263=0 264=1 267=2 269=0 269=1 146=1 55=EUR/USD 10=137 ]
20140416-16:01:02.157213Z recv: [8=FIX.4.2 9=204 35=W 34=186 49=OANDA 52=20140416-16:01:02.147 56=winxton 55=EUR/USD 262=mdreq_40670 268=2 269=0 270=1.38212 271=10000000 272=20140416 273=16:00:57 269=1 270=1.38223 271=10000000 272=20140416 273=16:00:57 10=046 ]
20140416-16:01:02.157270Z mdr successful
20140416-16:01:02.157663Z send: [8=FIX.4.2 9=138 35=D 34=186 49=winxton 52=20140416-16:01:02 56=OANDA 1=3922748 11=test_open_96787 21=1 38=1 40=1 54=1 60=20140416-16:01:02.157 55=EUR/USD 10=201 ]
20140416-16:01:02.179013Z recv: [8=FIX.4.2 9=255 35=8 34=187 49=OANDA 52=20140416-16:01:02.169 56=winxton 1=3922748 6=1.38223 11=test_open_96787 14=1 17=T511860930 20=0 21=1 31=1.38223 32=1 37=8774417 38=1 39=2 40=1 54=1 55=EUR/USD 58=OANDA transaction ID(s): 511860930. 60=20140416-16:01:02 150=2 151=0 10=127 ]
20140416-16:01:02.179070Z Execution Report received
20140416-16:01:02.179375Z send: [8=FIX.4.2 9=105 35=H 34=187 49=winxton 52=20140416-16:01:02 56=OANDA 11=test_open_96787 54=1 55=EUR/USD 790=status_26581 10=130 ]
20140416-16:01:02.198834Z recv: [8=FIX.4.2 9=247 35=8 34=188 49=OANDA 52=20140416-16:01:02.189 56=winxton 1=3922748 6=1.38223 11=test_open_96787 14=1 17=0 20=3 21=1 37=8774417 38=1 39=2 40=1 54=1 55=EUR/USD 58=OANDA transaction ID(s): 511860930. 60=20140416-16:01:02 150=2 151=0 790=status_26581 10=161 ]
20140416-16:01:02.198885Z Execution Report received
20140416-16:01:02.199237Z send: [8=FIX.4.2 9=139 35=D 34=188 49=winxton 52=20140416-16:01:02 56=OANDA 1=3922748 11=test_close_26622 21=1 38=1 40=1 54=2 60=20140416-16:01:02.198 55=EUR/USD 10=035 ]
20140416-16:01:02.223039Z recv: [8=FIX.4.2 9=256 35=8 34=189 49=OANDA 52=20140416-16:01:02.214 56=winxton 1=3922748 6=1.38212 11=test_close_26622 14=1 17=T511860931 20=0 21=1 31=1.38212 32=1 37=8774418 38=1 39=2 40=1 54=2 55=EUR/USD 58=OANDA transaction ID(s): 511860931. 60=20140416-16:01:02 150=2 151=0 10=202 ]
20140416-16:01:02.223091Z Execution Report received
